:1000000032C04CC04BC04AC049C048C047C046C0BF
:1000100045C086C043C042C041C040C04BC03EC086
:100020003DC03CC03BC0040A0A0A111F1F0E18182D
:100030000007040404071E131110180F08180011FC
:100040001F1F1B11001B0F191101031E02030202C7
:100050000404180000001B00110E11110E04080802
:1000600004040300000011241FBECFE5D4E0DEBF6E
:10007000CDBF11E0A0E6B0E0E2E0F0E102C0059003
:100080000D92A830B107D9F711E0A8E0B1E001C0A6
:100090001D92AC35B107E1F7A0D1B1C7B1CF97B18F
:1000A000987F982B97B9369A3699FECF24B135B1FF
:1000B000C90108951F920F920FB60F9211242F932A
:1000C0003F934F935F936F937F938F939F93AF93E0
:1000D000BF93EF93FF9364B175B180E090E040D699
:1000E0002AE939E941EA50E4A1D620E030E040E8CD
:1000F0005AE39CD604D670931E0160931D01FF91B4
:10010000EF91BF91AF919F918F917F916F915F918F
:100110004F913F912F910F900FBE0F901F90189508
:100120001F920F920FB60F9211248F939F9380917D
:1001300023018F5F80932301909108019F5F90932B
:100140000801893C10F010922301953650F08091FF
:1001500013018F5F8093130181E08093220110923D
:1001600008019F918F910F900FBE0F901F901895CF
:100170000895A49AAC9882E065E0ACD480E690E063
:100180004FD481E080930B01A59AAD9A889A9098FC
:100190000895CDD28093270180911301813049F4D5
:1001A00080912201813029F460E070E078D21092D1
:1001B000220180911301823009F058C08091220100
:1001C000813009F053C08CE291E064E271E045E2D5
:1001D00051E02FE131E009D28823C9F48091250153
:1001E0002AE0829FC001112420911F01820F911DDE
:1001F0006AE070E0BAD66093260183E066E06AD4D4
:100200008091260190E0E7D41092220108C010925C
:10021000220183E066E05ED483E790E001D4809120
:10022000260190E04C972CF0A4DF81E080930B0135
:100230000CC082E064E04ED486E790E0F1D31092E7
:100240000B01A49AAC9A889A909A80910B0188230A
:1002500039F083E065E13ED48BE890E0E1D3089586
:1002600083E065E137D48FE890E0DAD3089544D491
:1002700040D481E065E02ED483E990E0D1D382E0E0
:1002800067E028D48CE990E0CBD380E29EE424E1BF
:1002900031E0F9013197F1F70197D9F72AD482E8D3
:1002A00066E370E0F9D383E86EE370E0F5D384E8A9
:1002B00066E470E0F1D385E86EE470E0EDD386E8A3
:1002C00066E570E0E9D387E86EE570E0E5D381E0AC
:1002D00061E000D48BEA90E0A3D381E062E0FAD33E
:1002E0008DEA90E09DD381E063E0F4D38FEA90E063
:1002F00097D382E065E0EED381EB90E091D382E08A
:1003000066E0E8D383EB90E08BD382E067E0E2D352
:1003100085EB90E085D381E065E0DCD387EB90E06E
:100320007FD382E06BE0D6D382EC90E079D382E099
:1003300061E1D0D383E060E1CDD388EC90E070D36D
:1003400080E29EE424E131E0F9013197F1F7019771
:10035000D9F7CFD3A49AAC9888EE93E024E131E0AA
:10036000F9013197F1F70197D9F7A49AAC9A80E097
:1003700060E0B0D381ED90E053D380E069E0AAD390
:1003800087ED90E04DD381E060E0A4D38EED90E066
:1003900047D381E06AE09ED384EE90E041D380E8C9
:1003A00066E270E079D383E064E094D38AEE90E073
:1003B00037D383E068E08ED38FED90E026D38CEEC8
:1003C00090E02ED381E860EF70E050D383E063E1EA
:1003D00081D38EEE90E024D30895A9D18093270194
:1003E00085E083BF89B7816089BF80E098ED019780
:1003F000F1F73DDF789486B18F6E86B987E087B9D3
:10040000A198C7DE809113018330D9F710922201A1
:1004100010921301F6CFAF92BF92DF92EF92FF924C
:100420000F931F93DF93CF93CDB7DEB760970FB6CF
:10043000F894DEBF0FBECDBFD82E7A015901DE0180
:100440001196E8EFF0E080E101900D928150E1F724
:10045000FB018081482F50E0918180E0482B592B8F
:10046000F0E1DF1679F4CA018E7F33E0880F991F1F
:100470003A95E1F7FB0126814CE050E0421B51091F
:10048000480F591F57FF07C081E0F701808350953F
:1004900041955F4F02C0F7011082F8E2DF1699F430
:1004A000FB018481682F70E0CB01807690708036EC
:1004B000910549F066FF02C04E7F05C065FF02C08E
:1004C0004C7F01C0487FCA0124E0969587952A9504
:1004D000E1F7F5018083842F8F70FE01E80FF11D95
:1004E0008181F801808380E060960FB6F894DEBFCA
:1004F0000FBECDBFCF91DF911F910F91FF90EF9075
:10050000DF90BF90AF900895882319F070956195A2
:100510007F4F442319F0309521953F4F62177307A1
:100520001CF44FEF5FEF07C040E050E0261737079D
:1005300014F441E050E0CA0108957F928F929F9297
:10054000AF92BF92CF92DF92EF92FF920F931F93E1
:10055000DF93CF93CDB7DEB729970FB6F894DEBF00
:100560000FBECDBF782E6B015A01490141D18823BE
:1005700011F081E026C08EEB60E070E0BFD18E010B
:100580000F5F1F4F4AE0E42EF12CEC0EFD1E6CD1E4
:10059000F80181938F01EE15FF05C9F77E010894DC
:1005A000E11CF11CC70169E070E0C2D1882311F0A1
:1005B00083E007C0872DB701A601950184012BDFD9
:1005C00080E029960FB6F894DEBF0FBECDBFCF9165
:1005D000DF911F910F91FF90EF90DF90CF90BF9030
:1005E000AF909F908F907F9008956F927F928F929F
:1005F0009F92AF92BF92CF92DF92EF92FF920F93B2
:100600001F93DF93CF93CDB7DEB729970FB6F8943A
:10061000DEBF0FBECDBF6C015B014A013901E8D0DE
:10062000882311F081E026C08EEBB60167D18E01E0
:100630000F5F1F4F5AE0E52EF12CEC0EFD1E14D17A
:10064000F80181938F01EE15FF05C9F77E0108942B
:10065000E11CF11CC70169E070E06AD1882311F048
:1006600083E008C0F6018081B701A50194018301F0
:10067000D2DE80E029960FB6F894DEBF0FBECDBF64
:10068000CF91DF911F910F91FF90EF90DF90CF906E
:10069000BF90AF909F908F907F906F9008951F9321
:1006A000CF93DF93182FEB01A3D0882311F081E0C3
:1006B0000CC095D0882311F482E007C084E4BE0109
:1006C0001DD1113009F08ED080E0DF91CF911F91C4
:1006D00008951F93CF93DF93EC018AD0882341F4D0
:1006E00084EBBE010BD181E09CD0182F81D0111179
:1006F00011E0812FDF91CF911F9108950F931F93E8
:10070000CF93DF938C01EB01F8018081BE01AFD064
:10071000F801808381508D3F28F48881883211F060
:10072000803191F7DF91CF911F910F9108958F92B2
:100730009F92AF92BF92CF92DF92FF920F931F933F
:10074000DF93CF93CDB7DEB729970FB6F894DEBF0E
:100750000FBECDBF8FEF898300E010E0E2E0CE2E28
:10076000D12CCC0EDD1E4E010894811C911C7AE028
:10077000A72EB12CAC0EBD1E18C0C401B601BEDF41
:1007800089818F3FC9F08E3FB9F0D601F80163E04F
:10079000EE0FFF1F6A95E1F7E45DFE4F8D918193A7
:1007A000AA15BB05D9F70F5F1F4FF02E898188234B
:1007B00019F00630110509F78F2D29960FB6F89418
:1007C000DEBF0FBECDBFCF91DF911F910F91FF9084
:1007D000DF90CF90BF90AF909F908F90089583B39C
:1007E00081700895A89AA09A0895A898A09808954D
:1007F000A898A09A8FE295E00197F1F78FB7F89447
:10080000A09893EF9A95F1F723B38FBF88E794E010
:100810000197F1F7989902C081E00895822F8170C5
:1008200008952FB7F894A09A93E09A95F1F7811163
:10083000A09897E39A95F1F7989B80E095EA9A95AE
:10084000F1F7A0982FBF08950F931F93182F08E07A
:10085000812F8170E6DF1695811110680150C1F774
:10086000812F1F910F9108958FEFEEDF0895DF9292
:10087000EF92FF920F931F93CF93DF93E82EEB013C
:10088000B7DF882381F580EFDFDF80E4FF24182FB6
:1008900098EFD92ED80E81E0C4DF082F81E0C1DFA8
:1008A000882329F0002371F08EEFF82E1EC000235C
:1008B00049F41E1528F0888180FF04C0E11611F06C
:1008C000F12E01E0802FADDF88818695888300239B
:1008D00011F08068888311501D15E9F6112329F065
:1008E0002196812FD4CFFF24FA948F2DDF91CF91C1
:1008F0001F910F91FF90EF90DF9008950F931F933A
:10090000CF93DF93082FEB0173DF209741F085E54C
:100910009BDF18E0899198DF1150E1F702C08CEC61
:1009200093DF802F91DFDF91CF911F910F91089579
:10093000DC0120E040E050E098E115C0FD01E40F4B
:10094000F51FE08138E08E2F8227F82FF17080FDAF
:1009500029272695F13009F42068315011F0E695E9
:10096000F2CF4F5F5F4F4617570741F7822F089529
:1009700080FF02C0979A01C0979881FF02C0969AA3
:1009800001C0969882FF02C0959A01C0959883FF96
:1009900002C0949A08959498089580B3881F882778
:1009A000881F8699826085998460849988600895FB
:1009B0001F938C988D988E988F98C19AC09AEDDF6E
:1009C000182F1295107FC098C09AE7DFC098812B2E
:1009D0001F910895C298ECDF08951F93182F8C9AE9
:1009E0008D9A8E9A8F9AC198C09A82958F70C0DF27
:1009F000C098C09A812FBCDFC098ECDF87FDFDCF87
:100A00001F910895C298E9DF0895C29AE6DF08951C
:100A1000982F8058883008F49770892FF6DF089552
:100A2000CF93DF93EC0107C0892F8058883008F4FA
:100A30009770892FEADF99919923B1F7DF91CF91D0
:100A40000895CF93DF93EC0109C0892F8058883037
:100A500010F0892F02C0892F8770D7DFFE01219601
:100A60009491992391F7DF91CF9108951F93CF939C
:100A7000DF93EB0190E0877090700896880F880FE5
:100A8000880FC0DF10E08991C0DF1F5F1830D9F7F1
:100A9000DF91CF911F9108950F931F93CF93DF9311
:100AA0008B0190E0877090700896880F880F880FF0
:100AB000A9DFC0E0D0E0F801EC0FFD1FE4918E2F1C
:100AC000A4DF2196C830D105B1F7DF91CF911F91F6
:100AD0000F910895823031F0833031F0813029F464
:100AE00080E403C080E101C080E56058860F8ADFA2
:100AF000089581E087DF08950F931F938C9A8D9A54
:100B00008E9A8F9ABA9AB89AB99AC29AC09AC19A8A
:100B100080E092EA0197F1F7C098C298C198C09A14
:100B200083E026DFC09887E49CE20197F1F7C09A42
:100B300083E01EDFC09804E111E0C8010197F1F7DE
:100B4000C09A83E015DFC098C8010197F1F7C09AF9
:100B500082E00EDFC098C8010197F1F788E252DF0A
:100B600088E050DF8CE04EDF86E04CDFC2DF1F9173
:100B70000F9108950F931F93CF93DF938B0190E014
:100B8000877090700896880F880F880F3BDFC0E051
:100B9000D0E0C8018C0F9D1F1AD237DF2196C830D4
:100BA000D105B9F7DF91CF911F910F910895CF93A0
:100BB000DF93EC0121960BD2982F81508E3F40F4A9
:100BC0008F57883008F49770892F1FDFCE01F1CF3F
:100BD000DF91CF910895DF93CF93CDB7DEB76197C3
:100BE0000FB6F894DEBF0FBECDBFBE016F5F7F4F63
:100BF0004AE050E0CDD114DF61960FB6F894DEBF25
:100C00000FBECDBFCF91DF91089516B880E487B9AC
:100C100082E886B9379A089560E040E050E0369A5D
:100C2000349BFECF349A94B185B1382F20E0F9017E
:100C3000E90FF11D4E0F5F1F6F5F683081F79A015A
:100C400083E0369527958A95E1F7F4E020303F0759
:100C500010F02FEF33E0C90108950F931F938064C4
:100C600087B9DADFA0E0B0E0BC01CD0179D020E0A7
:100C700030E040EA50E4DAD020E030E040E85AE3E7
:100C8000D5D020E030E04AE754E4D0D03DD08B010D
:100C90009C0183E48093120180EB80931101C801D1
:100CA0006AE070E04ED18063809310018EE2809301
:100CB0000F01C8016AE070E044D19B01CB016AE0FA
:100CC00070E03FD1806380930E01C9016AE070E05B
:100CD00038D19B01CB016AE070E033D1806380930F
:100CE0000D01C9016AE070E02CD1606360930C01D2
:100CF0001F910F910895806487B98EDF089504D005
:100D00006894B1118DC0089570D088F09F5790F00D
:100D1000B92F9927B751A0F0D1F0660F771F881F20
:100D2000991F1AF0BA95C9F712C0B13081F077D087
:100D3000B1E0089574C0672F782F8827B85F39F025
:100D4000B93FCCF3869577956795B395D9F73EF47F
:100D500090958095709561957F4F8F4F9F4F089527
:100D6000E89409C097FB3EF4909580957095619545
:100D70007F4F8F4F9F4F9923A9F0F92F96E9BB27FB
:100D80009395F695879577956795B795F111F8CF77
:100D9000FAF4BB0F11F460FF1BC06F5F7F4F8F4FE2
:100DA0009F4F16C0882311F096E911C0772321F0D8
:100DB0009EE8872F762F05C0662371F096E8862F70
:100DC00070E060E02AF09A95660F771F881FDAF7C7
:100DD000880F9695879597F9089557FD9058440F79
:100DE000551F59F05F3F71F04795880F97FB991F8A
:100DF00061F09F3F79F08795089512161306140647
:100E0000551FF2CF4695F1DF08C0161617061806D3
:100E1000991FF1CF86957105610508940895E894AE
:100E2000BB2766277727CB0197F908950BD078C0A9
:100E300069D028F06ED018F0952309F05AC05FC031
:100E40001124EECFCADFA0F3959FD1F3950F50E0A8
:100E5000551F629FF001729FBB27F00DB11D639F6C
:100E6000AA27F00DB11DAA1F649F6627B00DA11D12
:100E7000661F829F2227B00DA11D621F739FB00DB8
:100E8000A11D621F839FA00D611D221F749F332728
:100E9000A00D611D231F849F600D211D822F762FC1
:100EA0006A2F11249F5750408AF0E1F088234AF0BE
:100EB000EE0FFF1FBB1F661F771F881F915050400A
:100EC000A9F79E3F510570F014C0AACF5F3FECF325
:100ED000983EDCF3869577956795B795F795E795F6
:100EE0009F5FC1F7FE2B880F911D9695879597F907
:100EF000089597F99F6780E870E060E008959FEF9C
:100F000080EC089500240A941616170618060906A0
:100F1000089500240A94121613061406050608956F
:100F2000092E0394000C11F4882352F0BB0F40F4F7
:100F3000BF2B11F460FF04C06F5F7F4F8F4F9F4F37
:100F40000895AA1BBB1B51E107C0AA1FBB1FA61710
:100F5000B70710F0A61BB70B881F991F5A95A9F762
:100F600080959095BC01CD01089597FB092E072629
:100F70000AD077FD04D0E5DF06D000201AF4709582
:100F800061957F4F0895F6F7909581959F4F08954D
:100F9000FB019F01E8944230BCF04532ACF44A308A
:100FA00029F497FB1EF4909581959F4F642F772726
:100FB000C8DF805D8A330CF0895D8193CB01009797
:100FC000A9F716F45DE251931082C90108C0E199B6
:100FD000FECF9FBB8EBBE09A99278DB30895DC01AD
:100FE000FC01672F71917723E1F7329704C07C9160
:100FF0006D9370836291AE17BF07C8F30895F8949C
:02100000FFCF20
:1010020050525A454B524F435A4F4E412054454D30
:101012005021003F3F00202020202020202020209F
:1010220020202020202020202020004F4E20004F72
:101032004646005A6173696C61637A006C61626F43
:101042007261746F72796A6E792E008200830084F5
:1010520000870086008500706F7765726564206284
:10106200790072303074690076312030332E313796
:1010720000495B415D3D002A495B415D3D00555B96
:10108200565D3D00505B575D3D008000430081008E
:101092001911131E0A1F1113000101020203040495
:0810A20005060607070809090D
:00000001FF
