:100000000C942A000C9430010C9447000C94470186
:100010000C9447000C9447000C9447000C94470044
:100020000C9447000C94D3000C9447000C944700A8
:100030000C9447000C9447000C9447000C94470024
:100040000C9447000C9447000C9447000C94470014
:100050000C94470011241FBECFE5D4E0DEBFCDBF16
:1000600010E0A0E6B0E0EEE0F5E102C005900D92F0
:10007000AE38B107D9F712E0AEE8B0E001C01D928A
:10008000A432B107E1F70E9467010C94850A0C9431
:100090000000FC018CE38093AA0189E48093AB010A
:1000A0008EE38093AC011092AD011092AE0181817C
:1000B000813021F48091AF01816003C08091AF0154
:1000C0008E7F8093AF018281813021F48091AF01D6
:1000D000826003C08091AF018D7F8093AF018381E7
:1000E000813021F48091AF01846003C08091AF0121
:1000F0008B7F8093AF0180E090E008958CE3809344
:10010000E10184E58093E2018FE38093E301809134
:10011000EB018093E4018091D9018093E50180E0B7
:1001200090E00895FC018CE38093AA0186E580931A
:10013000AB018EE38093AC011092AD011092AE0141
:100140008481813021F48091AF01886003C0809167
:10015000AF01877F8093AF018581813021F4809149
:10016000B001806103C08091B0018F7E8093B001A7
:100170008681813021F48091B101806203C0809139
:10018000B1018F7D8093B1018781813021F480910D
:10019000B201806403C08091B2018F7B8093B20171
:1001A00080E090E008951F920F920FB60F921124F5
:1001B0002F933F934F935F938F939F93209193003F
:1001C000309194002F5F3F4F309394002093930021
:1001D00040919500509196004F5F5F4F509396006D
:1001E000409395008091A7019091A801892B69F512
:1001F0002D523140DCF010929400109293008CE369
:100200008093E10184E58093E2018FE38093E30131
:100210008091EB018093E4018091D9018093E50105
:1002200081E090E09093E0018093DF014734510535
:1002300064F0809197008F5F8093970081E08093B6
:10024000980010929600109295009F918F915F9167
:100250004F913F912F910F900FBE0F901F901895C7
:100260001F920F920FB60F9211248F9385B58D7F39
:1002700085BDDF9A88EC8093D40114BC85B582607B
:1002800085BD8F910F900FBE0F901F9018951F92F4
:100290000F920FB60F9211248F939F938091F301C9
:1002A000882341F09091D4018091F301981711F4C3
:1002B000DF9801C0DF9A8091D40181508093D401EE
:1002C0009F918F910F900FBE0F901F9018956F9276
:1002D0007F928F929F92AF92BF92CF92DF92EF92D6
:1002E000FF920F931F93DF93CF93CDB7DEB7649741
:1002F0000FB6F894DEBF0FBECDBF8AB3806A8ABB4B
:10030000DD9ADF9A85B7826085BF8BB780648BBF2B
:1003100085B5886085BD89B7806889BF80E583BD64
:1003200078940E9456098093F10180E090E0AE013C
:10033000455F5F4F9E012F5F3F4FFA01E80FF91FA6
:100340001082F901E80FF91F10820196843091059F
:10035000A1F78B9AA69AA79AAB9AAA9AAC9A80E62A
:1003600090E00E948E0488EC90E020E931E0F901F1
:100370003197F1F70197D9F784E166E774E00E94BD
:100380006A0488EC90E020E931E0F9013197F1F757
:100390000197D9F780E690E066E670E00E948D064E
:1003A00085E083BF89B7816089BF7AE0772E6BE0F3
:1003B000E62EF12CEC0EFD1E58E0C52E41E1942EE8
:1003C00034E0832E20EBD22E94E6692E81E0A82E15
:1003D000B12C80919700813031F48093980060E0D7
:1003E00070E00E9405091092980080919700823079
:1003F000F1F481E08093980084EF91E06EED71E07C
:100400004BEE51E029ED31E00E94A608882379F4F3
:100410008091EB01879DC00111242091D901820FA9
:10042000911D9093F0018093EF01109298008091BC
:100430009700833011F4109297001A819A990BC09B
:1004400001E00C87112381F4C7010E944900009349
:10045000A1010A8309C01C86113031F4C7010E9432
:1004600049001093A1011A821B819B990BC001E0E6
:100470000D87112381F4C7010E9449000093A10157
:100480000B8309C01D86113031F4C7010E94490059
:100490001093A1011B821C819C990BC001E00E8767
:1004A000112381F4C7010E9449000093A1010C832C
:1004B00009C01E86113031F4C7010E944900109313
:1004C000A1011C828091A101813009F058C01092D5
:1004D000A10190E011C0E92FF0E09F0127563F4FA6
:1004E000DF01A05ABF4F8C91D9018C93E659FF4F81
:1004F000808116968C939F5F963068F390938E0060
:10050000C092A5001092A600A7EAB0E0E0E7F0E0F4
:1005100089E001900D928150E1F71092A90090922C
:10052000B00090E013C0E92FF0E09F0127563F4F45
:10053000DF01AA59BF4F8C91D9015E968C935E97CB
:10054000E758FF4F80815A968C939F5F943058F301
:1005500090938E008092BB00D092BC00D092BD00E0
:100560001092BF001092C1001092C20089E990E081
:100570006AEA71E049E020EB34E00E9412078091C2
:10058000DF019091E001019709F05AC090E011C09D
:10059000E92FF0E09F0127563F4FDF01A05ABF4FE0
:1005A0008C91D9018C93E659FF4F808116968C93DC
:1005B0009F5F963068F390938E00C092A5001092D2
:1005C000A600A7EAB0E0E0E7F0E089E001900D9234
:1005D0008150E1F71092A9009092B00090E013C012
:1005E000E92FF0E09F0127563F4FDF01AA59BF4F87
:1005F0008C91D9015E968C935E97E758FF4F80816E
:100600005A968C939F5F943058F390938E0080920B
:10061000BB00D092BC00D092BD001092BF001092DF
:10062000C1001092C20089E990E061EE71E045E0FE
:1006300020EB34E00E9412071092E0011092DF01DB
:100640008AEF90E069E970E00E948F05BC01909309
:10065000D6018093D501009709F4BBCE89E990E0DB
:100660000E94AD06882339F089E990E06091D501B8
:100670000E947907AECE89E990E06091D5010E9491
:10068000C806882309F4A5CE8091B000813061F4BA
:100690008091BB00883009F09CCE89E990E06091A0
:1006A000D5010E945C0795CE813109F092CE8091F0
:1006B000C300813009F48DCE8091C60084FF15C03F
:1006C00011E01F87B092A801A092A701C7010E9464
:1006D00092001093A101DF988091F3019091C700DF
:1006E0008917B9F09093F30114C01092A8011092E9
:1006F000A701DF9A8091F3019091C700891711F04B
:100700009093F3011F86C7010E94920081E08093BD
:10071000A1018091C60085FF0BC011E0188BC701B5
:100720000E9492001093A101DD986092DC0108C044
:10073000DD9A188AC7010E94920081E08093A1018E
:100740008091C60080FF09C0AF9A11E0198BC701E4
:100750000E9492001093A10108C0AF98198AC701A6
:100760000E94920081E08093A1018091C60081FFE8
:1007700009C0AE9A11E01A8BC7010E949200109333
:10078000A10127CEAE981A8AC7010E94920081E08B
:100790008093A1011ECEC498962F9F71982B9FB96C
:1007A000779BFECF1FB8779BFECF67FF03C01FB8B4
:1007B000779BFECFC49A8FB10895C4986F71682B50
:1007C0006FB9779BFECF4FB9779BFECFC49A089540
:1007D000AC01FB01C4988AE38FB9779BFECF9A01E5
:1007E000DF0107C01FB8779BFECF215030408FB18B
:1007F0008D9321153105B1F7E40FF51F1082C49ACE
:1008000008959C01FB01C4988AE78FB9779BFECFBE
:1008100007C080818FB9779BFECF21503040319641
:1008200021153105B1F7C49A08951F93CF93DF9333
:10083000182FC82FD0E0C076D0708091940190E03E
:10084000C817D90791F080EA6FE143E00E94DD0309
:1008500085E0D595C7958A95E1F780E86FE14C2F43
:100860000E94DD03107610939401DF91CF911F91C8
:1008700008951F93182F0E94150480E0612F0E9495
:10088000CB031F9108950F931F93182F062F0E94DB
:10089000150480E4612F402F0E94DD031F910F910A
:1008A0000895682F84ED0E94430482ED61E00E9468
:1008B000430480E58A95F1F78AEE0E94390480FDB1
:1008C000FBCF82ED60E00E94430489ED0E94390471
:1008D00090E008950F931F93982F162F072F84ED04
:1008E000692F0E94430486ED612F0E94430487ED27
:1008F000602F0E94430410E503C0812F8A95F1F711
:100900008AEE0E94390480FDF8CF1F910F9108955F
:10091000682F677085E70E94430408950F931F9323
:100920008C01BC9AC49A87B3806A87BBBE9AC59A69
:10093000C79A80E58DB9709A8FEF60E04FEF0E9403
:10094000DD038DEC8A95F1F71092960110929501D6
:1009500088E060E00E94430489E060E00E94430474
:100960008CE060E00E9443048DE060E00E9443045C
:100970008AE06EEF0E9443048BE069E10E94430429
:1009800084E06FEF0E94430485E069E10E94430424
:1009900086E06FEF0E94430487E06FE10E9443040A
:1009A00088E360EB0E94430488E26FE30E94430403
:1009B00089E260E30E94430480E369EF0E944304FC
:1009C00081E367EF0E94430480EC6DE00E944304E2
:1009D00081EC60E00E94430480E862EC42E30E9404
:1009E000DD0386EC62E10E94430487EC6CE00E9428
:1009F000430484EC62E10E9443048AEC6CED0E94A3
:100A000043048BEC65E00E94430484EEF8016081AE
:100A10000E94430485EEF80161810E94430482EE46
:100A2000F80162810E94430483EEF80163810E9411
:100A3000430480EEF80164810E94430481EEF801D2
:100A400065810E94430480E160E071E00E946A04D5
:100A50008FE10E94150480E86BE140EC0E94DD0309
:100A600080E86FE144E00E94DD031F910F9108953B
:100A700082E70E943904089581E10E94510420E038
:100A8000892B09F021E0822F08950F931F93CF93B4
:100A9000DF93EC018B010FC08CE10E94390481FFD0
:100AA0000AC080E86FE140E80E94DD0380EA6FE160
:100AB00040E80E94DD0380E06FE10E94CB0383FDEC
:100AC000EBCF82E06FEF0E94430483E069E10E9474
:100AD0004304CE018150682F86E00E9443049E01AA
:100AE0002150364E87E0632F0E9443048AE760E07E
:100AF00040E00E94DD03CE01B8010E94010480E8BD
:100B00006FE148E00E94DD03DF91CF911F910F91CB
:100B1000089589E30E943904811181E008958F923C
:100B20009F92AF92BF92CF92DF92EF92FF920F937C
:100B30001F93CF93DF935C014B0189E30E9439043B
:100B4000882319F4C0E0D0E07AC00091950110919B
:100B5000960180E0602F0E944304012F110F110BBA
:100B600081E0602F0E9443048AE360E00E94CB038F
:100B7000182F8AE360E00E94CB03382F20E0E12E9B
:100B8000FF24E22AF32AF0929601E09295018AE38B
:100B900060E00E94CB03C82E8AE360E00E94CB0392
:100BA000D82E8AE360E00E94CB03082F10E08AE38E
:100BB00060E00E94CB03382F20E0202B312B27FD53
:100BC00003C0C0E0D0E011C0CC2DD0E09D2D80E06E
:100BD000C82BD92BC501019724978C179D0708F4C2
:100BE000EC01CE01B4010E94E8038CE06E2D0E945E
:100BF00043046F2D772767FD7A958DE00E944304AB
:100C000087010150104089E10F3F180738F08CE050
:100C10006EEF0E9443048DE069E10AC06E2D6150C1
:100C20008CE00E944304612F772767FD7A958DE061
:100C30000E94430480E86EE140E40E94DD03CE019F
:100C4000DF91CF911F910F91FF90EF90DF90CF90A8
:100C5000BF90AF909F908F900895EF92FF920F9367
:100C60001F93CF93DF937C01413061F46850704053
:100C70009B0140E050E0685F7F4F2F5E3F4F4F4F3A
:100C80005F4F12C0423029F020E030E040E050E0F9
:100C90000BC0685070409B0140E050E0685F7F4FA0
:100CA0002A5F3F4F4F4F5F4FE7018B010FC0F88125
:100CB000E0E0898190E08E2B9F2BA0E0B0E0280F30
:100CC000391F4A1F5B1F2296025010400230110547
:100CD00070F7FB01EE7FEE0DFF1D60FF0DC09081F0
:100CE00080E0AA2797FDA095BA2F02C040705070EF
:100CF000280F391F4A1F5B1FCA01AA27BB2700976D
:100D0000A105B10599F720953095C901DF91CF91E3
:100D10001F910F91FF90EF900895AC0120E030E01B
:100D2000F901E356FE4FDB01A20FB31F8C918083C4
:100D30002F5F3F4F2430310599F720E030E0F90173
:100D4000E956FE4FDA01A20FB31F8C9180832F5F0B
:100D50003F4F2630310599F70895FC016932B0F014
:100D60008485883099F48585863081F4DF019696F4
:100D7000EDE9F1E09C918081981741F4119631964C
:100D800081E0E13AF807B1F781E0089580E0089545
:100D9000FC016A32B8F084858830A1F48585882307
:100DA00089F4DF01EDE9F1E05E969C915E97808128
:100DB000981741F41196319681E0E13AF807A1F7CE
:100DC00081E0089580E00895FC01A7E9B1E0868103
:100DD00080838D918683319681E0AD39B807B9F76C
:100DE0000895CF93DF93EC01FC01ADE9B1E0828D72
:100DF000868F8D91828F319681E0A13AB807B9F73D
:100E0000188E198E80E48C8B1D8A8E8BCE010E96E7
:100E100064E170E040E00E942D06988F898FDF9199
:100E2000CF910895DF92EF92FF920F931F93CF938C
:100E3000DF93EC017B01142FD22E032F0E94E406D6
:100E40001D3D08F01CED188A145E198BCE010E941E
:100E5000F1068AA18CA38BA18DA30AA3DBA21EA2FB
:100E600014511FA3185018A619A6DE019A9620E067
:100E700030E007C0F701E20FF31F80818D932F5FF1
:100E80003F4F2117B8F3012F10E0005F1F4FCE0135
:100E90004A96B80141E00E942D0698A789A7C8018B
:100EA0004A96BE010E944505DF91CF911F910F9197
:100EB000FF90EF90DF9008951F93CF93DF93EC01A5
:100EC000162F0E94E406CE010E94F1061AA28CA100
:100ED000883F18F08DA18F5F8DA38CA1885F8CA3B4
:100EE000812F90E0BE010E944505DF91CF911F91B7
:100EF0000895CF93DF93EC010E94E4061C8A82E000
:100F00008D8BFE01A7E9B1E0868980A38D91868B48
:100F1000319681E0AD39B807B9F7FE017C96ADE9AD
:100F2000B1E0808182878D91819381E0A13AB807F9
:100F3000C1F78AE290E0BE010E944505DF91CF91A2
:100F4000089520E03FE004C0F9013197F1F70197DF
:100F50000097D1F708952FE088E190E00FB6F8945C
:100F6000A89581BD0FBE21BD0895A8950895AF92A3
:100F7000BF92DF92EF92FF920F931F93DF93CF9375
:100F8000CDB7DEB760970FB6F894DEBF0FBECDBF0A
:100F9000D82E7A015901DE011196EDE7F0E080E1EB
:100FA00001900D928150E1F7FB018081482F50E0C4
:100FB000918180E0482B592BF0E1DF1679F4CA01CA
:100FC0008E7F33E0880F991F3A95E1F7FB01268168
:100FD0004CE050E0421B5109480F591F57FF07C012
:100FE00081E0F7018083509541955F4F02C0F70182
:100FF0001082F8E2DF1699F4FB018481682F70E01B
:10100000CB01807690708036910549F066FF02C072
:101010004E7F05C065FF02C04C7F01C0487FCA01FA
:1010200024E0969587952A95E1F7F5018083842F32
:101030008F70FE01E80FF11D8181F801808380E04F
:1010400060960FB6F894DEBF0FBECDBFCF91DF9193
:101050001F910F91FF90EF90DF90BF90AF90089598
:10106000882319F0709561957F4F442319F03095CE
:1010700021953F4F621773071CF44FEF5FEF07C0D6
:1010800040E050E02617370714F441E050E0CA0171
:1010900008957F928F929F92AF92BF92CF92DF92EC
:1010A000EF92FF920F931F93DF93CF93CDB7DEB7ED
:1010B00029970FB6F894DEBF0FBECDBF782E6B0117
:1010C0005A0149010E94B809882311F081E02AC021
:1010D0008EEB60E070E00E94460A8E010F5F1F4FAA
:1010E0004AE0E42EF12CEC0EFD1E0E94F609F801F8
:1010F00081938F01EE15FF05C1F77E010894E11C75
:10110000F11CC70169E070E00E94650A882311F0B4
:1011100083E008C0872DB701A601950184010E94D4
:10112000B70780E029960FB6F894DEBF0FBECDBF9B
:10113000CF91DF911F910F91FF90EF90DF90CF90B3
:10114000BF90AF909F908F907F9008956F927F9205
:101150008F929F92AF92BF92CF92DF92EF92FF92C7
:101160000F931F93DF93CF93CDB7DEB729970FB6B9
:10117000F894DEBF0FBECDBF6C015B014A0139019F
:101180000E94B809882311F081E02AC08EEBB601D5
:101190000E94460A8E010F5F1F4F5AE0E52EF12C88
:1011A000EC0EFD1E0E94F609F80181938F01EE15E9
:1011B000FF05C1F77E010894E11CF11CC70169E03D
:1011C00070E00E94650A882311F083E009C0F601EF
:1011D0008081B701A501940183010E94B70780E0D7
:1011E00029960FB6F894DEBF0FBECDBFCF91DF9129
:1011F0001F910F91FF90EF90DF90CF90BF90AF9035
:101200009F908F907F906F9008951F93CF93DF935F
:10121000182FEB010E94B809882311F081E00FC05C
:101220000E94AF09882311F482E009C084E4BE0162
:101230000E94460A113011F00E94B20980E0DF914D
:10124000CF911F9108951F93CF93DF93EC010E94DC
:10125000B809882359F484EBBE010E94460A81E054
:101260000E94D209182F0E94B809111111E0812F94
:10127000DF91CF911F9108950F931F93CF93DF9329
:101280008C01EB01F8018081BE010E94FA09F8018E
:10129000808381508D3F28F48881883211F080311D
:1012A00089F7DF91CF911F910F9108958F929F92AF
:1012B000AF92BF92CF92DF92FF920F931F93DF9373
:1012C000CF93CDB7DEB729970FB6F894DEBF0FBE28
:1012D000CDBF8FEF898300E010E0E2E0CE2ED12C6D
:1012E000CC0EDD1E4E010894811C911C7AE0A72EC5
:1012F000B12CAC0EBD1E19C0C401B6010E943C0940
:1013000089818F3FC9F08E3FB9F0D601F80163E0C3
:10131000EE0FFF1F6A95E1F7EC50FE4F8D91819320
:10132000AA15BB05D9F70F5F1F4FF02E89818823BF
:1013300019F00630110501F78F2D29960FB6F89494
:10134000DEBF0FBECDBFCF91DF911F910F91FF90F8
:10135000DF90CF90BF90AF909F908F90089583B310
:1013600080720895AD9AA59A0895AD98A5980895AC
:10137000AD98A59A80E897E00197F1F78FB7F894B8
:10138000A598E8E0F1E03197F1F723B38FBF88E744
:1013900096E00197F1F79D9902C081E00895822FB0
:1013A000807208952FB7F894A59A95E09A95F1F771
:1013B0008111A59890E59A95F1F79D9B80E090EFBB
:1013C0009A95F1F7A5982FBF08950F931F93182FA3
:1013D00008E0812F81700E94D20916958111106852
:1013E0000150B9F7812F1F910F9108958FEF0E943F
:1013F000E5090895DF92EF92FF920F931F93CF9329
:10140000DF93E82EEB010E94B8098823A1F580EF55
:101410000E94E50980E4FF24182F98EFD92ED80EFA
:1014200081E00E94D209082F81E00E94D20988231E
:1014300029F0002371F08EEFF82E1FC0002349F42D
:101440001E1528F0888180FF04C0E11611F0F12EEE
:1014500001E0802F0E94D20988818695888300232D
:1014600011F08068888311501D15D1F6112329F0E1
:101470002196812FD1CFFF24FA948F2DDF91CF9128
:101480001F910F91FF90EF90DF9008950F931F939E
:10149000CF93DF93082FEB010E94B809209751F0FA
:1014A00085E50E94E50918E089910E94E50911503F
:1014B000D9F703C08CEC0E94E509802F0E94E50952
:1014C000DF91CF911F910F910895DC0120E040E062
:1014D00050E098E115C0FD01E40FF51FE08138E010
:1014E0008E2F8227F82FF17080FD29272695F13065
:1014F00009F42068315011F0E695F2CF4F5F5F4F4D
:101500004617570741F7822F0895F894FFCF444EAE
:101510004D30F2230A030032B4749FBEA3A94500E4
:10152000008200004000200A0300060001010202C0
:0C1530000304040506060707080909006B
:00000001FF
