:020000040000FA
:0600000019EF04F01200EC
:020006000000F8
:08000800D9CFE6FFE1CFD9FFDB
:10001000040EE1260A0E186ED70E196EA30E1A6E84
:100020003B0E1B6EFD0EDBCF08F0FE0EDBCF09F0A2
:10003000EEEC01F007C01CF008C01DF009C01EF076
:100040000AC01FF01CC00CF01DC00DF01EC00EF049
:100050001FC00FF018C007F019C008F01AC009F04F
:100060001BC00AF054EC02F007C014F008C015F0F1
:1000700009C016F00AC017F00C6A0D6A800E0E6EE9
:10008000400E0F6E14C007F015C008F016C009F03E
:1000900017C00AF001EC02F0E7EC02F006C0DEFF48
:1000A00007C0DEFF08C0DEFF09C0DDFFDD52DD5204
:1000B000D9CFE9FFDACFEAFFD880000EEE54000E68
:1000C000EE54000EEE54000EEE540AE2D9CFE9FFD2
:1000D000DACFEAFFEE06000EEE5AEE5AEE5AE8D7F5
:1000E000040EE15C02E2E16AE552E16EE552E7CF1F
:1000F000D9FF1200D9CFE6FFE1CFD9FF020EE126EA
:10010000DE6ADD6ADECF14F0DDCF15F0FD0EDBCF49
:1001100016F0FE0EDBCF17F01650145C1750155872
:100120000CE2E60EE66E030EE66E6EDFE552E55279
:10013000DF2A010E01E3DB2AE5D7020EE15C02E2D1
:10014000E16AE552E16EE552E7CFD9FF1200D9CF5F
:10015000E6FFE1CFD9FF020EE126DE6ADD6ADECFDF
:1001600014F0DDCF15F0FD0EDBCF16F0FE0EDBCF69
:1001700017F01650145C175015580CE2E80EE66E96
:10018000030EE66EB7DFE552E552DF2A010E01E30A
:10019000DB2AE5D7020EE15C02E2E16AE552E16E9C
:1001A000E552E7CFD9FF1200D9CFE6FFE1CFD9FF63
:1001B000020EE126DE6ADD6ADECF14F0DDCF15F037
:1001C000640E145C000E155805E2DF2A010E01E3EF
:1001D000DB2AF2D7020EE15C02E2E16AE552E16E4F
:1001E000E552E7CFD9FF1200D9CFE6FFE1CFD9FF23
:1001F000340EE1261C0EDB6A1D0EDB6A1E0EDB6A66
:100200001F0EDB6AC00EF36E200EF3CFDBFF210E54
:10021000DB6AF90EF36E220EF3CFDBFF230EDB6AEF
:10022000A40EF36E240EF3CFDBFF250EDB6AB00EB7
:10023000F36E260EF3CFDBFF270EDB6A990EF36E0B
:10024000280EF3CFDBFF290EDB6A920EF36E2A0E27
:10025000F3CFDBFF2B0EDB6A820EF36E2C0EF3CF97
:10026000DBFF2D0EDB6AF80EF36E2E0EF3CFDBFFF5
:100270002F0EDB6A800EF36E300EF3CFDBFF310EF4
:10028000DB6A900EF36E320EF3CFDBFF330EDB6AC8
:10029000956A936A816A958E010E926E810EC26E86
:1002A000C16A83BE17D00E010A6B0B6BC80E0BAF71
:1002B00002D0D89003D00A5D000E0B5904E20A2B3D
:1002C000000E0B23F3D783BE05D01C0EDB2A1D0EB8
:1002D00001E3DB2A83AEFED71C0EDBCF14F01D0E2C
:1002E000DBCF15F0153404E214500908000E155444
:1002F0002BE2D950200F146EDACF15F01C0EDBCF95
:1003000016F01D0EDBCF17F00A0E0D6E0E6A16C02A
:1003100008F017C009F0C1EC02F008C016F009C0DF
:1003200017F0D8901636173614501624E96E15506B
:100330001720EA6EEF50816E83800A0EE66EE66A41
:10034000D9DEE552E5528390D950200F146EDACFF2
:1003500015F01C0EDBCF16F01D0EDBCF17F00A0ECA
:100360000D6E0E6A16C008F017C009F0C1EC02F05D
:1003700004C016F005C017F0D89016361736145082
:100380001624E96E15501720EA6EEF50816E8382B5
:10039000050EE66EE66AAEDEE552E552FC0E831609
:1003A0001C0EDBCF14F01D0EDBCF15F0153404E26C
:1003B00014506308000E155404E21C0EDB6A1D0E77
:1003C000DB6A6FD7340EE15C02E2E16AE552E16E6E
:0803D000E552E7CFD9FF12004E
:0803D800019E08D0019E09AE50
:1003E00005D0086C091EE86A0922018E09C003F0D5
:1003F00008C002F0136A126A8E0E046E056A3AEFA4
:1004000003F0016A76EC03F08EEC03F001B61EEF08
:1004100003F001A205D001BA1EEF03F025EF03F0AF
:1004200001BA31EF03F001A005D001B81EEF03F0CF
:1004300031EF03F001B825EF03F0056A7F0E0A24BF
:10044000046EE86A05220F50045EE86A055A1A0E27
:10045000106E0A6A126A136A026A036A0C50075E17
:100460000D50085A0E50095A000E0A5A09E70C504E
:1004700007260D5008220E500922000E0A2201D034
:10048000128AD8900736083609360A36D8901236BE
:10049000133602360336102EE1D709500810071024
:1004A000D8A4128A3AEF03F0016A76EC03F08EECDE
:1004B00003F001B61EEF03F001A205D001B81EEF54
:1004C00003F025EF03F001AA05D001B01EEF03F001
:1004D00025EF03F001B002D001A802D031EF03F004
:1004E000056A0F500A24046EE86A05227E0E045E37
:1004F000E86A055A126A136A026A036A0E50090210
:10050000F4CF03F0F3CF02F00D500902F35013269D
:10051000F4500222000E03220E500802F35013265C
:10052000F4500222000E03220C500902F35012264E
:10053000F4501322000E022203220D500802F35041
:100540001226F4501322000E022203220E5007023C
:10055000F3501226F4501322000E022203220C50F4
:100560000802F4501226000E1322022203220D501C
:100570000702F4501226000E1322022203223AEF41
:1005800003F0006A0EAECAEF02F00D6C0E1EE86AB0
:100590000E22001E09AED2EF02F0086C091EE86AB6
:1005A0000922001EF3EC03F009BEE2EF02F000AEF8
:1005B000000C086C091EE86A0922046C051EE86A32
:1005C0000522000C00BED9EF02F00188FF0C016A81
:1005D00076EC03F001B6F1EF02F001A20FD001B406
:1005E00007D07F0E096EFF0E086E076E066E25D0CF
:1005F000800E096E01D0096A000EF6D701B0FBD754
:10060000066A9F0E0A60EBD77E0E0A64F4D79E0E30
:100610000A5C07E0D89009320832073206320A2A0B
:10062000F6D701A40AD0066C071E081E091EE86A48
:1006300007220822092209AEDED712007F0E0A6EB9
:10064000FF0E096E086E076E12007F0E01BEFF0ED0
:100650000A6E02D07F0E0A6E800E096E086A076A63
:10066000F3D701AE04D0800E0A6E096AF7D70A6A82
:10067000096AF4D70350021013101210F8E005BEF7
:10068000F0D703BE0CD004500510EBE0D890123622
:100690001336023603360406D8A00506F2D70550F5
:1006A000D4E10428D2E012AE11D07F0E121402E180
:1006B00013A00CD0132AE86A0222032207E3D88091
:1006C000033202321332042A0428BFE00450C9E086
:1006D00013C007F002C008F00334096E04300A6E3C
:1006E00009320A9E01BE0A8E24EF03F009360A364B
:1006F00002E30184017E06E101800A6A096A086A50
:10070000076A12000A2803E0D88009321200D89044
:10071000093202E101821200018612000E360F3604
:1007200002E3018C017E06E101880F6A0E6A0D6A00
:100730000C6A12000F2803E0D8800E321200D89005
:080740000E32EAE1018A120009
:08074800060EF66E000EF76EBE
:10075000000EF86E0E010900F550056F0900F55006
:10076000066F03E1056701D03DD00900F550006F29
:100770000900F550016F0900F550026F09000900EA
:10078000F550E96E0900F550EA6E0900090009000C
:10079000F550036F0900F550046F09000900F6CF0A
:1007A00007FEF7CF08FEF8CF09FE00CEF6FF01CE18
:1007B000F7FF02CEF8FF0E01035302E1045307E0F6
:1007C0000900F550EE6E0307F8E20407F9D707CEEB
:1007D000F6FF08CEF7FF09CEF8FF0E010507000E61
:0607E000065BBFD712000A
:0A07E600056A046A100EE76ED89051
:1007F00008360936043605360D50045C0E5005588F
:1008000005E30D50045E0E50055A082AE72EF0D776
:020810001200D4
:0E081200410EF36E00EE00F00E0E01D8120043
:10082000EA6002D0EE6AFCD7F350E9601200EE6A8B
:02083000FCD7F3
:0E0832001DEE00F02DEE00F0F86A019CA4EC23
:0E08400003F027EC04F0F4EC00F0FBD71200FC
:02084E00120096
:020000040030CA
:0100000010EF
:010001009866
:010002007984
:010003001CE0
:010005008872
:010006008178
:010008000FE8
:01000900C036
:01000A000FE6
:01000B00E014
:01000C000FE4
:01000D0040B2
:00000001FF
