:020000040800F2
:10000000008002200D050008791000087D1000080E
:100010008110000885100008891000080000000009
:100020000000000000000000000000008D1000082B
:1000300091100008000000009510000899100008B9
:100040005D050008A91000085D0500085D050008B1
:10005000AD100008B11000085D0500085D0500083E
:100060005D0500085D0500085D0500085D050008E8
:100070005D0500085D0500085D0500085D050008D8
:100080005D0500085D0500085D0500085D050008C8
:100090005D0500085D0500085D0500085D050008B8
:1000A000B5100008C11000085D0500085D050008D6
:1000B000CD1000085D05000800000000D910000800
:1000C000E5100008F1100008FD1000085D050008AB
:1000D0005D05000809110008151100085D050008FC
:1000E000211100085D05000800000000000000006C
:1000F0000000000000000000000000000000000000
:100100000000000039110008000000005D05000833
:100110005D05000800000000451100080000000017
:100120005D0500085D0500085D0500085111000827
:100130005D0500085D0500085D0500080000000081
:100140005D0500085D0500085D0500085D05000807
:100150005D0500085D0500085D0500085D050008F7
:100160005D0500085D0500085D0500080000000051
:10017000000000005D050008000000000000000015
:100180005D0500085D1100085D0500085D050008BB
:080190005D05000800000000FD
:1001980010B5054C237833B9044B13B10448AFF3B9
:1001A80000800123237010BD900000200000000093
:1001B800D8890008084B10B51BB108490848AFF3A7
:1001C80000800848036803B910BD074B002BFBD01B
:1001D800BDE81040184700BF000000009400002050
:1001E800D8890008900000200000000053B94AB9DF
:1001F800002908BF00281CBF4FF0FF314FF0FF3027
:1002080000F07EB9ADF1080C6DE904CE00F006F8F7
:10021800DDF804E0DDE9022304B070472DE9F0477A
:100228008C460E460446089D002B50D18A4217463C
:100238006CD9B2FA82FEBEF1000F0BD0CEF12004C9
:1002480020FA04F401FA0EF644EA060C02FA0EF754
:1002580000FA0EF44FEA1749220CBCFBF9F01FFA1A
:1002680087F809FB10C642EA064600FB08F3B342CA
:1002780009D9F61900F1FF3280F02281B34240F229
:100288001F8102383E44F61AA2B2B6FBF9F309FB05
:10029800136642EA064403FB08F8A04509D9E419A5
:1002A80003F1FF3280F00A81A04540F20781023B4A
:1002B8003C44C8EB040443EA00400021002D62D00E
:1002C80024FA0EF400232C606B60BDE8F0878B42A3
:1002D80007D9002D55D0002185E841000846BDE822
:1002E800F087B3FA83F1002940F09080B34202D33B
:1002F800824200F2F880841A66EB03060120B446B5
:10030800002D40D085E81010BDE8F08712B901270C
:10031800B7FBF2F7B7FA87FEBEF1000F35D1F31B32
:100328004FEA17481FFA87FC0121B3FBF8F0220CAB
:1003380008FB103642EA06460CFB00F3B34207D925
:10034800F61900F1FF3202D2B34200F2CE80104615
:10035800F61AA2B2B6FBF8F308FB136642EA0644A3
:100368000CFB03FCA44507D9E41903F1FF3202D2C0
:10037800A44500F2B5801346CCEB040443EA0040E0
:100388009CE729462846BDE8F087CEF1200106FA09
:100398000EF307FA0EF720FA01F94FEA1748CE4094
:1003A80049EA0309B6FBF8FA4FEA194408FB1A664A
:1003B8001FFA87FC44EA06430AFB0CF29A4200FA49
:1003C8000EF40AD9DB190AF1FF3180F087809A42CE
:1003D80040F28480AAF1020A3B449B1A1FFA89F969
:1003E800B3FBF8F108FB113349EA034301FB0CF6B0
:1003F8009E4207D9DB1901F1FF326BD29E4269D9BF
:1004080002393B449B1B41EA0A418EE7C1F1200EA9
:1004180022FA0EF48B40234320FA0EF706FA01F471
:100428004FEA134C26FA0EF63C43B6FBFCF9270CB0
:100438000CFB19661FFA83F847EA064609FB08F71A
:10044800B74202FA01F200FA01FA08D9F61809F1DE
:10045800FF3041D2B7423FD9A9F102091E44F61B29
:10046800A0B2B6FBFCF40CFB146640EA064704FB9A
:1004780008F8B84507D9FF1804F1FF3028D2B84565
:1004880026D9023C1F4444EA0940C8EB0707A0FBF1
:1004980002894F4544464E4614D329D065B3BAEB7A
:1004A800040367EB060707FA0EFECB40CF404EEA7F
:1004B800030385E888000021BDE8F0871346F8E6C5
:1004C8001046E0E6B8EB020469EB03060138E5E7FD
:1004D8000446D8E7114695E78146C0E78A467CE797
:1004E800023B3C4448E708460AE702383E442FE707
:1004F800C245E7D33E46D1E72946BDE8F08700BFAD
:10050800704700BFDFF834D0002103E00C4B5B5884
:10051800435004310B480C4B42189A42F6D30B4A0D
:1005280002E0002342F8043B094B9A42F9D300F059
:1005380013FE08F043F900F0D5F8FEE7008002202A
:10054800408F00080000002090000020900000204C
:100558009C0E0020FEE7000000B583B001238DF853
:1005680007309DF80730012B18BF022002D003B0D6
:100578005DF804FB014803F051FBF8E7380600205A
:1005880008B513460A460146034802F05DFF0030ED
:1005980018BF012008BD00BF3806002008B5134663
:1005A8000A460146034802F0F1FF003018BF012057
:1005B80008BD00BF3806002008B5034803F058FC02
:1005C800043818BF012008BD38060020014601483C
:1005D80003F03ABC38060020704700BF08B5FFF7A3
:1005E800FBFF08BD704700BF08B5FFF7FBFF08BD5C
:1005F800704700BF08B5FFF7FBFF08BD08B5034902
:10060800034808F0B3F8034B187008BDF800002041
:10061800F0890008F4000020002070472DE9F0411F
:10062800B0B0012402254FF01808002160220823E9
:10063800072705A8CDF814800A940B9410941194F8
:100648000C910D920F95149515951293139701F02F
:10065800E5FE00B1FEE701460F2203230290039056
:10066800049068468DE80C0002F00AFA00B1FEE733
:100678001A491E904FF400764FF080621F90239025
:1006880024904FF4801316A817941894CDF864801A
:100698001A971B951C9516912F962B921D9302F075
:1006A8003BFB00B1FEE7304601F0D0FD044600B147
:1006B800FEE702F077FA0A4BA3FB0030800900F04E
:1006C8000DFE042000F024FE224621464FF0FF30A4
:1006D80000F0C0FD30B0BDE8F08100BFC3000A00E3
:1006E800D34D621080B59C4D9C4E8EB000F072FDCB
:1006F800FFF794FFEB6C9A4843F00403EB64EB6C50
:1007080003F004030293029BEB6C43F00103EB64D8
:10071800EB6C03F001030393039BEB6C43F00203C0
:10072800EB64EB6C03F002030493049BEB6C43F063
:100738000803EB64EB6C03F00803059301220C211A
:10074800059B01F0E1F8012203214FF0904001F0F0
:10075800DBF8002210214FF0904001F0D5F800227C
:100768004FF440717F48002401F0CEF801274FF084
:1007780002080C2309A97A4809930A970B94CDF823
:10078800308000F0D5FF032309A94FF0904009936A
:100798000A970B94CDF8308000F0CAFF102309A9FE
:1007A8004FF0904009930A970B940C9400F0C0FF07
:1007B8004FF440626C4B6B48099209A90A930B9459
:1007C80000F0B6FF4FF4407309A9664809930A97E9
:1007D8000B940C9400F0ACFF22462146282000F030
:1007E80039FD282000F06EFDAB6C43EA0803AB64CA
:1007F800AB6C03EA08032246019321463B20019B88
:1008080000F028FD3B2000F05DFD584AF76040F6F7
:1008180014633046B46034617461B461F461346265
:1008280086E80C0001F084F800B1FEE70146304686
:1008380001F0B0FC014600B1FEE7304601F0D4FCFF
:10084800034600B1FEE74A4C4A4D60607F21FF2213
:10085800204623616361A361E3612560A160E260D2
:1008680002F006FC034600B1FEE7024609261425FD
:1008780009A920468DF826300C930D938DF8246035
:100888008DF8255002F068FC024600B1FEE70EAD77
:10089800394B45F8203D2046294602F021FD034604
:1008A80000B1FEE7354C44F61F624FF08041204608
:1008B800A3602361A36184E80600E26003F0ECFA18
:1008C80000B1FEE74FF4805309A92046099303F0CD
:1008D8004FFB034600B1FEE72046294606930893DE
:1008E80003F0BEFC024600B1FEE7254B25495860DF
:1008F80018469A60DA609A61196003F0CDFA00B17F
:10090800FEE7002309A91E4809930B9303F0A8FCEE
:10091800034600B1FEE71C4C1C4A60602046A360F9
:10092800E36023616361A361226003F0B5FA00B15B
:10093800FEE74FF4805309A92046099303F018FBFA
:10094800034600B1FEE7294620460693089303F0C4
:1009580087FC0246E0B1FEE7001002406005002077
:10096800000800480004004800001110005400402E
:100978007C0900200028004001010100E409002052
:10098800A009002000100040AC05002000400140F4
:100998004C4B4D49586018469A60DA601A615A61A2
:1009A8009A61196003F078FA024600B1FEE7474BF6
:1009B800474D98604FF4165118460C24DA601A61B6
:1009C8009A61DA611A625A621D6059605C6103F0CB
:1009D8008DFD024600B1FEE73E4B3F4D98604FF457
:1009E80096411846DA601A615C619A61DA611A62A6
:1009F8005A621D60596003F079FD034600B1FEE7B5
:100A0800364C374DA06040F61461012220466160E3
:100A180023616361A361E36123622560E26000F002
:100A280087FF014600B1FEE7204601F0B3FB01460F
:100A380000B1FEE7204601F0D7FB00B1FEE7294BE5
:100A4800294A2A4D002483E814009C60DC601C615C
:100A58005C619C61FFF7D2FD22462146182000F018
:100A6800F9FB182000F02EFC22462146192000F040
:100A7800F1FB192000F026FC224601211C4806F053
:100A8800DDFF122228701B491B4807F017F80246A1
:100A9800287080B902214FF0904000F035FF164CC5
:100AA800E168204607F066FB204607F0FFF920467C
:100AB80007F09AFAFEE722460421104800F024FFC6
:100AC800EDE700BFCC0C00200044014004090020E1
:100AD80000380140240A002000440040EC050020B2
:100AE800005800403806002000280140E109002095
:100AF800D0060020A08E00089C0A002000080048AC
:100B0800FEE700BF38B50A4C01252570FFF724FD24
:100B180008B1207838BD2570FFF74EFD18B9237845
:100B280003F0FE0323702378DBB22370207838BDEE
:100B38000000002010B5064C01232370FFF73CFD90
:100B480018B9237803F0FE032370207810BD00BF86
:100B58000000002070B5174C084611461A460023BD
:100B68002360FFF70DFD08B1012070BD00F04CFBBC
:100B780047F22F55064604E000F046FB801BA842CA
:100B880002D82368002BF7D023680A4A002BEBD041
:100B98000023136000F038FB47F22F55044600F09D
:100BA80033FB001BA842DFD8FFF706FD0028F6D16B
:100BB80070BD00BFAC00002070B5174C0846114648
:100BC8001A4600236360FFF7E9FC08B1012070BDF5
:100BD80000F01AFB47F22F55064604E000F014FB1C
:100BE800801BA84202D86368002BF7D063680A4AC2
:100BF800002BEBD00023536000F006FB47F22F5583
:100C0800044600F001FB001BA842DFD8FFF7D4FC24
:100C18000028F6D170BD00BFAC000020144B1B7833
:100C2800DB0701D50320704710B5144688B00329A7
:100C38001CD8DFE801F002140D05002008B010BD33
:100C48006846FFF7C3FC079B5B0A23600020F5E7B3
:100C58006846FFF7BBFC079B23800020EEE7684649
:100C6800FFF7B4FC069B23600020E7E70420E5E7D4
:100C780000000020324B00B51A6E42F001021A66DD
:100C88001A6E83B002F001020092009A9A6D42F047
:100C980080529A659B6D03F0805301930320019B5A
:100CA80000F0C6FA002211466FF00B0000F0D2FAED
:100CB800002211466FF00A0000F0CCFA002211461B
:100CC8006FF0090000F0C6FA002211466FF0040028
:100CD80000F0C0FA002211466FF0030000F0BAFAE3
:100CE800002211466FF0010000F0B4FA002211460C
:100CF8004FF0FF3000F0AEFA00221146012000F05C
:100D0800A9FA012000F0DEFA00221146042000F0C2
:100D1800A1FA042000F0D6FA00221146052000F0BE
:100D280099FA052000F0CEFA00221146512000F071
:100D380091FA512000F0C6FA03B05DF804FB00BF39
:100D48000010024070B503682E4A934288B02ED036
:100D58002D4A934201D008B070BD0322042303A991
:100D68004FF4C0461225012428480692079303969B
:100D78000495059400F0DCFC254B9A6D42F4800242
:100D88009A659B6D002203F480031146029321208B
:100D9800029B00F05FFA212000F094FA002211462D
:100DA800222000F057FA222000F08CFAD3E7032221
:100DB800042303A94FF4C066122501244FF0904084
:100DC8000692079303960495059400F0B1FC104B26
:100DD8009A6D42F400129A659B6D002203F4001389
:100DE800114601931F20019B00F034FA1F2000F0E8
:100DF80069FA00221146202000F02CFA202000F089
:100E080061FAA8E700540040005800400004004878
:100E1800001002400268064B9A4200D07047054A0B
:100E2800D2F8903043F40043C2F89030704700BFC6
:100E380000280040001002402E4B02689A4200D061
:100E4800704703F568432DE9F0431A6E2A4D42F4C2
:100E580080621A661B6E87B003F4806300260093D5
:100E68000C274FF4885301A94FF002094FF00308EB
:100E780004462248009A01930597CDF808900396F6
:100E8800CDF8108000F054FC042301A91C480597F4
:100E98000193CDF808900396CDF81080072700F04D
:100EA80047FCDFF864E0AE6080214FF400724FF435
:100EB80000632846EE60EE612E62C5F800E06F60C0
:100EC80029616A61AB6100F035FA68B90022114600
:100ED8002564E5633120AC6200F0BCF9312000F0F4
:100EE800F1F907B0BDE8F0834FF494710548FFF7B6
:100EF80007FEEBE7002801404C0E002000080048E0
:100F0800000C0048A88E00084404024000B503689D
:100F1800B3F1804F85B023D0254A934234D0254A77
:100F2800934212D0244A934202D005B05DF804FBE4
:100F3800224B1A6E42F400321A661B6E03F4003319
:100F48000393039B05B05DF804FB1C4B1A6E42F437
:100F580080321A661B6E03F480330293029BE4E727
:100F680003F504331C209A6D42F001029A659B6DCB
:100F7800002203F0010300931146009B00F06AF978
:100F88001C2000F09FF9D0E70C4B9A6D42F010023C
:100F98009A659B6D002203F01003019311463620D9
:100FA800019B00F057F9362000F08CF9BDE700BF2F
:100FB8000010004000400140004401400010024081
:100FC800F0B50368264A934289B027D0254A934250
:100FD80001D009B0F0BD244B9A6D42F400329A65F5
:100FE8009B6D0C2603F4003302930024072303228D
:100FF8000DEB060102254FF0904006920793029FE1
:1010080003960495059400F093FB2246214626207A
:1010180000F020F9262000F055F9DAE7124B1348C2
:101028001A6E42F480421A661B6E03F480430193E1
:1010380000240723032203A9C0260225069207934A
:10104800019F03960495059400F072FB2246214601
:10105800252000F0FFF8252000F034F9B9E700BF9B
:1010680000380140004400400010024000040048DD
:10107800704700BFFEE700BFFEE700BFFEE700BF06
:10108800FEE700BF704700BF704700BF704700BF52
:1010980008B500F0B1F8BDE8084000F047B900BF56
:1010A80001F016B900F078BA704700BF014803F0A4
:1010B8001FB800BFAC050020014803F019B800BFF5
:1010C800CC0C0020014803F013B800BFE40900204D
:1010D800014800F083BC00BF60050020014800F013
:1010E8008DBF00BF60050020014800F077BC00BF3D
:1010F800EC050020014800F081BF00BFEC0500208E
:10110800014803F0E3B800BF04090020014803F0D8
:10111800DDB800BF240A002008B54FF4806000F055
:10112800FBFB4FF40060BDE8084000F0F5BB00BFD2
:10113800014802F069BB00BF38060020014802F0F0
:10114800D7BF00BFA0090020014800F0D3B900BFF5
:101158004C0E0020704700BF1149124BD1F888206F
:1011680042F4700210B4C1F888201A68002042F0D6
:1011780001021A6098601A6822F0A85222F410221C
:101188004FF480541A60DC601A684FF0006422F44F
:1011980080221A6098618C605DF8044B704700BF2C
:1011A80000ED00E000100240084B094A1B6810B52A
:1011B800A2FB03230446980900F090F82146002278
:1011C8004FF0FF3000F046F8002010BD040000206A
:1011D800D34D6210074A08B5136823F400731360EF
:1011E800032000F025F80020FFF7DEFFFFF742FD9F
:1011F800002008BD00200240024A13680133136032
:10120800704700BF940E0020014B1868704700BF5C
:10121800940E002038B50446FFF7F6FF631C054618
:1012280018BF0134FFF7F0FF401B8442FAD838BDDD
:10123800074AD1684FF6FF030B40000243F0BF6333
:1012480000F4E06043F400330343D360704700BF09
:1012580000ED00E0194BDB68C3F3022330B4C3F19F
:101268000705042D03F1040428BF0425062C18D90A
:10127800033B01249C40013C22400124AC40013C3A
:10128800214001FA03F3002842EA03020CDB00F1D3
:10129800604000F561401201D2B280F8002330BCF2
:1012A800704700221346E8E7054B00F00F001201D3
:1012B8000344D2B21A7630BC704700BF00ED00E09C
:1012C800FCEC00E000F01F0101234009024A8B40BA
:1012D80042F82030704700BF00E100E00138B0F16B
:1012E800807F0ED2084B10B4084C5860F02084F868
:1012F80023000022072110469A6019605DF8044B0C
:1013080070470120704700BF10E000E000ED00E0EA
:10131800044A136804280CBF43F0040323F00403B1
:101328001360704710E000E0704700BF08B5FFF792
:10133800FBFF08BD00284FD0F0B5324A046894423C
:1013480003463FD9304A3149DFF8D0E02244A1FBB7
:101358000212120992009F68DD681E695869C3F875
:1013680040E002213D4383F8251035439969DE6941
:101378005A6405430D4320682E431D6A20F4FF413B
:10138800354321F070012943B7F5804F216011D012
:101398001F498E4522D01F4902F01C020C680F20FD
:1013A800904024EA000008605C68086804FA02F2C9
:1013B80002430A6000200122D86383F8240083F8DE
:1013C8002520F0BD144A1149DFF844E02244A1FB6E
:1013D800021212099200BEE701207047D1F8A85006
:1013E80002F01C020F20904025EA0000C1F8A80076
:1013F8005C68D1F8A80004FA02F20243C1F8A820F8
:10140800D8E700BF07040240F8FBFDBFCDCCCCCC29
:1014180000000240A8040240F8FFFDBF000402409B
:10142800F0B590F82440012C0CD090F82540012507
:10143800E4B2AC4280F8245006D0002380F824306F
:101448000220F0BD0220F0BD0568D0F840E0022778
:10145800002680F82570C663476C2E6807F01C07C5
:1014680026F001062E60BC408668CEF804406B600A
:10147800036B102E0BBFAA60A960E960EA604BB14C
:101488002B6843F00E032B602B6843F001032B609D
:101498000020F0BD2B6823F004032B602B6843F079
:1014A8000A032B60F0E700BF90F82520022AF8B560
:1014B80003D00422C2630120F8BD0168426C0C68A5
:1014C800076C856B24F00E040C600C68012624F070
:1014D800010402F01C020C6006FA02F200247A6091
:1014E80080F8256080F8244015B1A8472046F8BD4B
:1014F8002846F8BDF0B4436C066C056831682C6862
:10150800042203F01C039A4011420DD067070BD543
:101518002B689B0603D42B6823F004032B60036B12
:101528007260C3B1F0BC184702229A40114214D02D
:10153800A70712D52B68990606D42B68012123F03A
:101548000A032B6080F82510C36A7260002280F8B5
:101558002420002BE6D1F0BC704708229A400A42AA
:10156800F9D02207F7D52968446B012221F00E0132
:1015780002FA03F3002729607360C26380F82470BD
:1015880080F82520002CE6D02346F0BC184700BF81
:10159800704700BF704700BF424A38B55369424C94
:1015A80023F4FF6323F007035361237A042B56D0F7
:1015B8003C493E4B08698A69034002F08042134364
:1015C8001CD0626813F0404042EA0302626002D015
:1015D8008A6902438A6133F040431CBF314A136170
:1015E80000F07AF8237A304ADBB2012B46D0022B7E
:1015F80048D0033B012B4DD900232372294B1A698C
:10160800D20710D501221A61237A274D934216D0AA
:1016180000F062F82B7ADBB2022B3FD0033B012BA0
:1016280034D900232372237A1F4903F0FF002BB912
:101638001C4A536923F040735361087038BDAB6985
:10164800013BAB61AB697BB16869FFF7A1FF6B69CF
:1016580001336B616869296900F02AF8E3E7536987
:1016680023F480235361A3E74FF0FF326A612B72A2
:1016780000F032F86869FFF78BFFD4E75069FFF78D
:1016880089FFB9E71069FFF785FFB5E7E868FFF755
:101698007FFFC6E7D068FFF77DFFADE72869FFF752
:1016A80077FFBEE70020024008000020FAC30200CE
:1016B800084B5A69C00000F4FF6022F4FF6202433D
:1016C8005A615A6942F002025A615A6942F48032F8
:1016D8005A6170470020024013490B7FDBB203F0C8
:1016E800FD02012A0CD1114A106840F40060106014
:1016F800106820F400601060106840F400701060FA
:10170800023B012B0CD8094B1A6842F480521A602C
:101718001A6822F480521A601A6842F480621A60C9
:1017280000230B77704700BF08000020002002400C
:101738008C460968002900F0DA802DE9F04FDFF8BF
:10174800C4E183B000254FF0010879E04FEA45096C
:101758000323D0F800A003FA09F3DB4304F0030BDA
:101768000AEA030A0BFA09FB013F4BEA0A0A012FAE
:10177800C0F800A040F29780C768DCF808203B401A
:1017880002FA09F21343C360E30055D5584B584A8F
:101798001B6E43F001031366136E25F0030909F16C
:1017A800804903F0010309F58039019305F003032B
:1017B800019AD9F808209B000F279F40B0F1904F5D
:1017C80022EA070200F086804A4FB84200F084807F
:1017D800494FB84200F08380484FB84200F08380F8
:1017E800474FB8420CBF0427072707FA03F31343F0
:1017F800C9F80830DEF80030F243E7034CBF334342
:101808001340CEF80030DEF80430A7034CBF334352
:101818001340CEF80430DEF80830E7024CBF3343FB
:101828001340CEF80830DEF80C30A40254BF02EAA8
:1018380003061E43CEF80C60013531FA05F346D095
:1018480008FA05F212EA0106F6D0DCF8044024F0A2
:101858001007022F7FF47AAF4FEAD50B00EB8B0B02
:1018680005F0070ADBF82030DCF810704FEA8A0A26
:101878004FF00F0909FA0AF923EA090907FA0AF3E6
:1018880043EA0903CBF820304FEA450903230768E8
:1018980003FA09F3DB4304F0030A1F400AFA09FAC2
:1018A8004AEA07070760876807EA030ADCF80C704A
:1018B80007FA09F747EA0A0787604768C4F3001A76
:1018C80027EA02075246AA403A43426054E703B067
:1018D800BDE8F08F00238AE708FA03F387E70227B9
:1018E80007FA03F383E7032707FA03F37FE7704751
:1018F800001002400004004800080048000C00489E
:1019080000100048000401400AB9816270478161F3
:10191800704700BF704700BF044A5169014200D1B7
:10192800704708B55061FFF7F5FF08BD0004014096
:10193800F8B5044600284ED090F8413003F0FF0275
:10194800002B3FD02368E068242284F841201968DE
:10195800626821F0010122F0706219601A619A68C8
:10196800012822F400429A60A26830D042F404426E
:1019780002289A6004BF4FF400625A60586861698F
:10198800256A2269A769E66940F0007040F40040C2
:101998005860D8680A4342EA072246EA050120F45B
:1019A8000040D860DA6019601968002241F001012E
:1019B800202519601046626484F84150226384F837
:1019C8004220F8BD80F84020FFF7BCF9BAE742F49E
:1019D80000429A60D2E76064FFDE00BF036810B47B
:1019E800446B99691A681CB123465DF8044B184783
:1019F8005DF8044B704700BF704700BF704700BFD9
:101A0800704700BFF8B50468C668A169A269A368F1
:101A1800E768120C022EC1F3004102F0FE020DD15C
:101A2800C3F3090682EAD61212F0060310D1826CBB
:101A380001328264826C022A16D0F8BD236800261F
:101A480023F0B803236080F84060FFF7D9FFF8BDA2
:101A58002368002623F0B803236007F0FE0280F80D
:101A68004060FFF7CDFFF8BD082783643246E76181
:101A780080F84030FFF7C4FFF8BD00BF704700BFD3
:101A8800704700BF704700BF0023474A70B580F811
:101A98004230C2624385436C1943416490F8413037
:101AA800282B04462ED090F84130292B2AD090F8C4
:101AB80041302A2B26D0036890F8412090F8412025
:101AC8001A6822F0FE021A6090F84120602A1CBFB2
:101AD800202280F841200022026342631A6812F42F
:101AE800804230D01A68A06B22F480421A6040B15C
:101AF8002E4B8363002384F84030FFF7D5FC002881
:101B080043D170BD94F8411094F841002368284DE2
:101B18001A6801F02801282900F0280014BF6FF086
:101B2800F6016FF04601282818BF6FF0F6010A4049
:101B3800282000211A6084F8410021631A6865632F
:101B480012F48042CED1196811F4004113D01968FB
:101B5800E06B21F4004119600028D2D0134B836355
:101B680084F84020FFF7A0FC0028CAD0E06BBDE84D
:101B78007040836B184794F84130602B0AD084F882
:101B880040102046FFF77CFF70BDA06BBDE8704099
:101B9800836B1847202384F8401084F8413020468E
:101BA800FFF770FF70BD00BF0000FFFFD11F0008E6
:101BB8001D1D000870B5044620202368534AD861CB
:101BC8000820D86194F8410094F84100186820F082
:101BD800FE001860586840F4004058605868024099
:101BE8005A609A69900744BF00229A629A69D2079C
:101BF80003D49A6942F001029A611A68560402D421
:101C08001A6815040AD5E26B002A78D018684004CF
:101C180048BFA26B1268526892B2628511F004063E
:101C280006D0626A5B6A511C61621370238D4BBBDC
:101C3800638D9BB21BB1636C43F00403636400259E
:101C4800256384F84250636C656313BBE26A3049CC
:101C58008A420DD194F8412084F84030222A4FF06E
:101C6800200284F8412020464DD0FFF7C5FE70BD04
:101C78002022E16284F8403084F841202046FFF7B2
:101C8800FDFE70BD628D013A013B92B223856285EB
:101C9800CEE7616C2046FFF7F7FE94F84130282B19
:101CA800E5D11B4AE26220232563656384F841304D
:101CB80084F842508EB1636A2268591C526A616284
:101CC8001A70238D4BB1628D013A92B26285626CB3
:101CD800013B42F0040223856264236894F84120A2
:101CE80094F841201A68102522F0FE0200211A609B
:101CF8002046DD6184F84010FFF7C0FE70BDA06B80
:101D0800002883D18AE7FFF779FE70BD00E800FE5E
:101D18000000FFFF90F84030012B00F0C8802DE94B
:101D2800F04101239046CA060F46044680F8403029
:101D380026D4780773D518F0040F70D0638D9BB242
:101D480063B1636A20685D1C406A65621870638DC0
:101D5800208D013B9BB2013863852085638D9BB242
:101D68001BB9E06A10F5803F7DD1BB0603D518F09A
:101D7800200F40F09E80002084F84000BDE8F081EC
:101D880018F0100FD5D0438D9BB2002B40F09A80ED
:101D9800C36AB3F1007F00F0AB80C36AB3F1007F80
:101DA80000F0A680E36A13F5803F00F0878094F87E
:101DB8004130292B40F0828023681020D86198692F
:101DC800860744BF002098629869C50703D49869BC
:101DD80040F001009861002584F8425094F84100D1
:101DE800292800F0D78094F841002A28BDD1282658
:101DF800222084F84160206394F84160186806F056
:101E08002806282E14BF6FF0F4066FF04406304001
:101E18001860204684F84050FFF7F0FDA5E7390721
:101E280010D518F0080F0DD094F8413003F02803AE
:101E3800282B00F09280206808250023C56184F8CB
:101E4800403092E7BA0790D518F0020F8DD0638D15
:101E58009BB2002B3ED1E36AB3F1807F02D0E36AE4
:101E6800002B82D1002384F8423094F841002928BD
:101E780077D094F841002A287FF477AF28252220CC
:101E880084F84150206394F84100256800F0280048
:101E98002828286814BF6FF0F4066FF04406304015
:101EA8002860204684F84030FFF7A8FD5DE702204F
:101EB800704739462046FFF77DFE5CE7236810200F
:101EC800D86152E703681020D861636C43F00403BB
:101ED80063644AE7636A2568208D5E1C66621B7826
:101EE800AB62638D013B9BB20138638520853CE77B
:101EF80094F84130282B7FF455AF324BE362202011
:101F080000232363636384F8410084F842307B072D
:101F180011D5636A20685D1C406A65621870238D5C
:101F28004BB1608D013880B26085606C013B40F038
:101F3800040023856064236894F8410094F8410004
:101F48001868102620F0FE0000251860DE61204683
:101F580084F84050FFF792FD07E72046FFF752FD4F
:101F680003E72825212084F84150206394F8410094
:101F7800256800F028002828286814BF6FF0F206AA
:101F88006FF0420630402860204684F84030FFF762
:101F980033FDEAE62826212084F84160206394F87E
:101FA8004160186806F02806282E14BF6FF0F20664
:101FB8006FF0420630401860204684F84050FFF722
:101FC8001BFDD2E60000FFFF806A0268C16B536800
:101FD80043F4004310B5846B536090F8412000230C
:101FE800602AA3638B6302D0FFF74AFD10BD20234C
:101FF80080F84130FFF746FD10BD00BF01688B69CE
:102008000A6870B5DD0518D5140660D5426C4FF422
:10201800807442F001025E054264CC6165D5426C71
:102028004FF4806442F008029D054264CC6154D4A8
:10203800436C13F00B0F08D170BD5C0549D512062F
:10204800EDD4436C13F00B0FF6D000224E4B446CCA
:1020580080F84220C3624285436C2343436490F86E
:102068004130282B44D090F84130292B40D090F8AB
:1020780041302A2B3CD090F8413090F841300B6821
:1020880023F0FE030B6090F84130602B1CBF202327
:1020980080F841300023036343630B6813F48043E3
:1020A800044646D00B68806B23F480430B600028FD
:1020B800C2D0364B8363002384F84030FFF7F4F92D
:1020C8000028B9D0A06BBDE87040836B18475C0549
:1020D800AED49E05ACD51506AAD5436C4FF4007254
:1020E80043F002034364CA61A2E79B05F5D49FE766
:1020F80090F8414090F841200E68254D04F02804DE
:10210800282C02F0280214BF6FF0F6036FF0460384
:10211800282A18BF6FF0F6033340282400220B60EA
:1021280080F8414002630B68456313F4804304461A
:10213800B8D10A6812F4004215D00A68C06B22F4BC
:1021480000420A6000283FF477AF104A826384F89F
:102158004030FFF7A9F900283FF46EAFE06BBDE807
:102168007040836B184790F84130602B04D080F89A
:102178004020FFF785FC70BD202380F8402080F8C0
:102188004130FFF77FFC70BD0000FFFFD11F000842
:102198001D1D000890F84130DBB2202B01D0022031
:1021A8007047024690F840000128F8D010B4106833
:1021B800242482F84140046824F00104046004687F
:1021C80024F48054046004682143016001680024F9
:1021D80041F001010160204682F8404082F8413018
:1021E8005DF8044B704700BF90F84130DBB2202BFC
:1021F80001D002207047024690F840000128F8D02C
:1022080010B41068242482F84140046824F00104C2
:102218000460046824F4706444EA012101600168E0
:10222800002441F001010160204682F8404082F814
:1022380041305DF8044B7047704700BF024B186887
:1022480000F4C060704700BF00700040B0F5007F28
:102258000ED0194A136803F4C063B3F5806F05D034
:10226800136823F4C06343F480631360002070474D
:1022780011490B6803F4C063B3F5007FF6D0086812
:102288000E4B0F4A20F4C06040F4007008601B68D1
:10229800A2FB03239A0C322303FB02F313B904E0D5
:1022A800013B02D04A695205FAD4034B5B695B05CE
:1022B800DCD50320704700BF0070004004000020F8
:1022C80083DE1B43704700BF704700BF704700BFE5
:1022D80010B5124C6369D8031AD4104C636B1907F4
:1022E80011D40E4C636B9A0608D40C4C636B5B06D6
:1022F80003D5FFF7EBFF4023636310BDFFF7E4FF4F
:1023080020236363F1E7FFF7DDFF08236363E8E752
:10231800FFF792FF4FF480336361DEE7000401406A
:102328003A4B9A6812F00C0F30B439D09A6802F020
:102338000C020C2A2FD0354A936803F00C03042BA7
:1023480055D0936803F00C03082B5CD02F4CA16880
:1023580001F00C0100200C2905463DD1E168E26836
:1023680001F00301C2F30212022902F1010341D074
:10237800032933D0B5FBF3F3E268C2F3062203FB6B
:1023880002F3224AD068C0F341600130400030BCFB
:10239800B3FBF0F07047DB6803F00303012BCAD1ED
:1023A8001A4B1B491A68120754BFD3F894301B689C
:1023B800164A54BFC3F30323C3F30313926851F8B7
:1023C800235012F00C0F0CBF284600200F4CA168B8
:1023D80001F00C010C29C1D030BC7047E0680D4AEF
:1023E800B2FBF3F2C0F3062002FB00F3C9E70A4888
:1023F8000025EBE7E0680849B1FBF3F2C0F30620DB
:1024080002FB00F3BDE703480025DFE700100240A8
:10241800048A000800127A000024F400002800F062
:1024280025822DE9F0410368DD0684B0044667D5AE
:10243800B74B9A6812F00C0F40F074811B6898072C
:1024480000F1AB81B24B256A1A68B14E110756BF2D
:10245800D3F894301B681B0903F0F003AB4280F0FB
:102468000782B36DDA0000F18A82B36D43F08053BE
:10247800B365B36D03F080530293029BFFF7DEFE52
:10248800B36D23F08053B365B0F5007F00F09882F8
:10249800802D00F2938200F0EC82A5F17005B5FA68
:1024A80085F56D099B4A136823F007032B431360D6
:1024B800136803F007039D4240F07381944B1A6838
:1024C80042F008021A601968226A21F0F0010A43F2
:1024D8001A605A68E16922F47F4242EA01225A608E
:1024E800FFF71EFF8A4B8C499B688C4AC3F3031382
:1024F800CB5C20FA03F300201360FEF755FE236837
:10250800D9072FD582498A6802F00C02082A00F000
:102518007C818A6802F00C020C2A00F070816368E2
:10252800B3F5803F00F07B81B3F5A02F00F02F8238
:10253800774D2A6822F480322A602A6822F48022A1
:102548002A60002B40F07081FEF75EFE064605E02B
:10255800FEF75AFE801B642800F284812B689F03D3
:10256800F6D423689E0700F1A5801A0719D5636978
:10257800674D002B00F01981D5F8943043F0010322
:10258800C5F89430FEF740FE064605E0FEF73CFE2F
:10259800801B022800F26681D5F894309B07F5D598
:1025A800236858073FD55A4B9A6DD10000F1A28194
:1025B8009A6D42F080529A659B6D03F080530193A7
:1025C800019B0126564D2B68DA0540F13B81A36833
:1025D800012B00F0E981052B00F08E814C4DD5F8D8
:1025E800902022F00102C5F89020D5F8902022F022
:1025F8000402C5F89020002B40F08B81FEF704FE02
:1026080041F28837804606E0FEF7FEFDC8EB000081
:10261800B84200F22781D5F890309907F4D4002EFB
:1026280040F0DC8123689A0618D5636A384D002B80
:1026380000F08181D5F8983043F00103C5F898304F
:10264800FEF7E2FD064605E0FEF7DEFD801B0228E8
:1026580000F20881D5F898309B07F5D5A26A2AB30D
:102668002B4B996801F00C010C2900F09A80022A82
:102678001A6822F080721A6000F0BA811A68120192
:1026880040F18081224CE36823F0887323F480337F
:10269800E360FEF7B9FD054605E0FEF7B5FD401B12
:1026A800022800F2DF8023689B01F6D4002004B0E2
:1026B800BDE8F08116498A6802F00C02042A00F08D
:1026C8008E808A6802F00C020C2A00F08280E3688F
:1026D8000F4D002B00F0FC802B6843F480732B60B7
:1026E800FEF792FD064605E0FEF78EFD801B0228E8
:1026F80000F2B8802B68064A5805F5D55368216959
:1027080023F0FE4343EA0163536023682DE700BFCB
:102718000010024000200240348A00080400002013
:102728000070004082692AB31A6842F001021A60F8
:102738001D46FEF769FD064605E0FEF765FD801BB0
:10274800022800F28F802B68AC4A9F07F5D51368E2
:1027580043F0080313601168236A21F0F0010B436A
:1027680013605368E16923F47F4343EA012353600C
:102778002368C5E61A6822F001021A601D46FEF7B2
:1027880043FD064604E0FEF73FFD801B022869D89A
:102798002B689807F7D42368B2E6A369002B7FF467
:1027A80051AE012004B0BDE8F081D5F8943023F093
:1027B8000103C5F89430FEF727FD064604E0FEF74E
:1027C80023FD801B02284DD8D5F894309F07F6D4F6
:1027D800E6E6CA6802F00302022A7FF478AF874A65
:1027E8001268550502D5E268002ADAD083492069C3
:1027F8004A6822F0FE4242EA00624A60B5E6CA68C8
:1028080002F00302032A7FF48AAE7C4A126892031C
:102818007FF5A8AE6268002A7FF4A4AEC1E7774AC4
:10282800136843F480331360FEF7EEFC734D0646DD
:1028380004E0FEF7E9FC801B642813D82B689B038F
:10284800F7D58EE62B6843F480732B60FEF7DCFC2B
:1028580007462B68DB053FF5BAAEFEF7D5FCC01B73
:102868000228F6D9032004B0BDE8F08101207047A2
:10287800336843F008033360336823F0F0032B43D5
:1028880033607368E26923F47F4343EA0223736089
:10289800B36DDB0063D5FFF7D1FCB0F5007F00F026
:1028A8009680802D00F2888000F0E580A5F1700503
:1028B800B5FA85F56D09524A136823F007032B43CF
:1028C8001360136803F007039D427FF46AAF07E6BD
:1028D8002B6823F480732B60FEF796FC064604E011
:1028E800FEF792FC801B0228BCD82B685905F7D448
:1028F80023683AE6002665E6404BD3F8902042F07C
:102908000402C3F89020D3F8902042F00102C3F8E3
:102918009020FEF779FC394D804641F2883705E072
:10292800FEF772FCC8EB0000B8429BD8D5F890308F
:102938009807F5D573E6D5F8983023F00103C5F864
:102948009830FEF761FC064604E0FEF75DFC801B4C
:10295800022887D8D5F898309F07F6D47EE6B36D5D
:1029680043F08053B365B36D03F080530393039B27
:10297800FFF764FCB36D23F08053B3658DE7FFF771
:102988005DFC81E5DA6822F00302DA607AE603F199
:102998008043A3F53C331A6842F480221A601A680F
:1029A80042F480321A603FE7144AD2F8903043F07C
:1029B8000103C2F89030ACE703257CE7032571E5F5
:1029C800802D11D9A12D34BF012502256AE5802D5E
:1029D8000CD9A12D34BF012502256CE7074A936D58
:1029E80023F0805393651DE600255BE5002562E72B
:1029F8001D46FEF709FC06460AE000BF001002402B
:102A080000200240FEF700FC801B02283FF62AAF98
:102A18002B681A4A9801F5D404F12C03C8CBA56B8E
:102A2800E06B216CEC0644EA072423434008741E3B
:102A380043EA04130138490843EA4053013943EA99
:102A48004163D360136843F080731360D36843F025
:102A58008073D3601446FEF7D7FB054605E0FEF702
:102A6800D3FB401B02283FF6FDAE23689901F6D53B
:102A78001CE6022516E502251DE700BF00100240EE
:102A88002DE9F04178B1434A136803F007038B42FC
:102A98000CD2136823F007030B431360136803F089
:102AA8000703994202D00120BDE8F08103680D4672
:102AB800D90704463DD4990706D53748A2688168E6
:102AC80021F0F0010A43826032490A6802F00702E5
:102AD800954209D20A6822F007022A430A600A6866
:102AE80002F007029542DED15A0706D52A48E26865
:102AF800816821F4E0610A4382601B0707D5264AF2
:102B08002169936823F4605343EAC1039360FFF794
:102B180007FC214B21499B68214AC3F30313CB5C73
:102B280020FA03F300201360FEF73EFB0020BDE807
:102B3800F0814368184A032B126825D0022B1DD058
:102B48002BBB9607AFD5144EB26822F0030213438D
:102B5800B360FEF759FB41F28837804605E0FEF77F
:102B680053FBC8EB0000B8420BD8B368626803F0A7
:102B78000C03B3EB820FF2D123689CE79703E2D4EE
:102B880091E70320BDE8F0819201DCD48BE7500582
:102B980089D5D8E70020024000100240348A000896
:102BA80004000020014B1868704700BF0400002093
:102BB800044B054A9B680549C3F302230868D35CA4
:102BC800D840704700100240448A000804000020E2
:102BD800044B054A9B680549C3F3C2230868D35CC4
:102BE800D840704700100240448A000804000020C2
:102BF800484AF8B5D3689B0707D0D368046803F040
:102C08000303A3420DD00120F8BD0368022B12D0A4
:102C1800032B59D0012BF6D1126897070ED418460A
:102C2800F8BD002BEFD0D3684268C3F30213013319
:102C38009342E8D10CE012685605E4D5354D426858
:102C4800EC6824F073042343013A43EA0213EB606F
:102C5800304C236823F0806323600F460546FEF757
:102C6800D3FA064604E0FEF7CFFA801B022829D8DB
:102C78002368284A1901F6D4002F2CD11169AC68B1
:102C8800E86821F0784323F4FE4343EA042343EA47
:102C9800C06313611F4C236843F080632360FEF711
:102CA800B3FA064604E0FEF7AFFA801B022809D8FB
:102CB8002368184A1B01F6D5AB6911690B431361E8
:102CC8000020F8BD0320F8BD1468A503B6D4126827
:102CD800540398D5B2E7012F11690DD06869AC6823
:102CE80021F0C06323F4FE43400843EA042301387B
:102CF80043EA40631361CDE72869AC6821F4C00357
:102D080023F4FE43410843EA0423013943EA4153CB
:102D18001361BFE7001002402DE9F043036813F484
:102D2800006783B004460CD0C16CB1F5000F00F009
:102D38006081B1F5400F00F04381002900F05F8108
:102D480001279D0359D5B74B9A6DD00040F11F81DB
:102D58004FF00008B44D2B6843F480732B60FEF7E6
:102D680053FA064605E0FEF74FFA801B022800F2E8
:102D78001A812B68D905F6D5002F39D1A94AD2F87E
:102D8800903013F440732AD0616E8B4200F0688152
:102D9800D2F89030D2F8900040F48030C2F8900019
:102DA800D2F8900023F4407320F48030C2F89000E9
:102DB800C2F89030DA0740F13281FEF725FA994DD2
:102DC800814641F2883606E0FEF71EFAC9EB00009C
:102DD800B04200F2E880D5F890309B07F4D5636ED6
:102DE8009049D1F8902022F440721343C1F89030F2
:102DF800B8F1000F40F0DC802368DE0708D5894869
:102E0800226AD0F8881021F003010A43C0F888200C
:102E18009D0708D58348626AD0F8881021F00C0114
:102E28000A43C0F88820580708D57E48A26AD0F817
:102E3800881021F030010A43C0F88820190708D506
:102E48007848E26AD0F8881021F0C0010A43C0F837
:102E580088209A0608D57348226BD0F8881021F488
:102E680040610A43C0F888209E0508D56D48626C09
:102E7800D0F8881021F440210A43C0F888205D0565
:102E880008D56848A26CD0F8881021F440110A438C
:102E9800C0F88820580608D56248626BD0F88810B8
:102EA80021F440510A43C0F88820190608D55D4826
:102EB800A26BD0F8881021F440410A43C0F888205A
:102EC800DA0508D55748E26BD0F8881021F440316C
:102ED8000A43C0F88820DE0208D55248226CD0F890
:102EE8009C1021F003010A43C0F89C209D040FD5D3
:102EF8004C48216DD0F8882022F040620A43B1F195
:102F0800006FC0F888206FD0B1F1806F00F09E800C
:102F180018030ED54348616DD0F8882022F040622E
:102F28000A43B1F1006FC0F8882058D0B1F1806F22
:102F38007CD059030ED53B48A16DD0F8882022F0EB
:102F480040620A43B1F1006FC0F8882042D0B1F165
:102F5800806F73D05A040BD53248E16DD0F88820C1
:102F680022F040520A43B1F1805FC0F888204ED069
:102F7800DB0308D52B49226ED1F8883023F00043B3
:102F88001343C1F88830384603B0BDE8F0839A6D22
:102F980042F080529A659B6D03F080530193019B28
:102FA8004FF00108D6E60327B8F1000F3FF424AF2D
:102FB8001C4A936D23F0805393651DE7E16C2368E9
:102FC8001848D0F8882022F440021143C0F888102D
:102FD8000027B6E6C26842F48012C260BAE7C26847
:102FE80042F48012C260A4E7C26842F48012C26050
:102FF8008EE70C48C26842F48032C260E0E70430D1
:10300800FFF7F6FD07460028D8D0236899E6022185
:10301800201DFFF7EDFD08B307462368A8E70B4618
:10302800DEE600BF00100240007000400121201DB4
:10303800FFF7DEFDC0B1074623687AE70121201DAE
:10304800FFF7D6FD90B10746236883E70121201DCD
:10305800FFF7CEFD30B10746236859E7236887E7B5
:103068000B46A7E6236853E7236862E7236871E7FE
:1030780000286ED0F8B590F82130044603F0FF021E
:10308800002B4FD0236853220220CA2184F8210044
:1030980059625A62DA6855062CD59A6861682569BA
:1030A800A069A668E76822F4E00222F040029A606C
:1030B8009A6811432943014399601F611A6942EADA
:1030C80006421A61DA6822F08002DA609A6892068B
:1030D8002DD5D86C6169E26920F00300D864D86CFA
:1030E80002430A43FF250121DA6400205D6284F867
:1030F8002110F8BD4FF0FF32DA60FEF785F805467B
:103108002368DA685006C8D4FEF77EF8401BB0F58D
:103118007A7FF5D92268FF2104235162012084F8BF
:103128002130F8BD80F82020FDF774FEAAE7DA68A0
:1031380022F0A002DA60FEF767F805462368DA682D
:103148009106C6D4FEF760F8401BB0F57A7FF5D932
:10315800E0E70120704700BF2DE9F84390F82030E0
:10316800012B00F086800124022380F8204080F89B
:1031780021300468002A3ED0A7684E780B7817F0F3
:10318800400516BFCF78CD703D044FEA06268F78EC
:1031980008BF046846EA03433B4343EA0507CA22DB
:1031A800532362626362E3685A068846064663D51B
:1031B80007F07F3323F0FE432360A168D8F80C3072
:1031C800D8F8102021F48021A160A1680B43134393
:1031D800A360E36823F08003E360A3689B0668D5D7
:1031E8000023FF2101226162184686F8212086F813
:1031F8002030BDE8F883A6680B7816F0400615BFA6
:10320800CE78CE7036040468092B65D900220A3BB3
:10321800DBB2092B02F10102F9D84FEA021E5FFA6C
:103228008EFE4A7843EA0E03092A4FEA034E4FF00E
:10323800000507D90A3AD2B2092A05F10105F9D8D9
:103248002D01EDB28B782A43092B4FEA02254FF066
:10325800000707D90A3BDBB2092B07F10107F9D8A8
:103268003F01FFB24EEA06022A433B4342EA030704
:1032780095E70220BDE8F8834FF0FF33E360FDF7E0
:10328800C3FF81463468E36813F0400590D1FDF729
:10329800BBFFC9EB0000B0F57A7FF3D93268FF2194
:1032A80004235162012086F8205086F82130BDE8B9
:1032B800F883E36823F0A003E360FDF7A5FF074662
:1032C8003468E36813F020058AD1FDF79DFFC01B21
:1032D800B0F57A7FF4D9E1E74FF0000EA1E700BF1F
:1032E800F8B590F82030012B65D00124022380F82E
:1032F800204080F8213042B34A78CB788D780C781A
:10330800110241EA03422A4342EA44340368CA21CB
:10331800532259625A62DA68510607464DD524F09D
:103328007F4424F0C0045C60DA6822F08002DA602E
:103338009A68920662D50022FF2001215862104641
:1033480087F8211087F82020F8BD4B78DC064FD489
:10335800CA78092A4FF0000407D90A3AD2B2092AD2
:1033680004F10104F9D82401E4B22243092B4FEAFD
:1033780002425FD900240A3BDBB2092B04F10104A5
:10338800F9D82501EDB28C782B43092C4FEA032597
:103398004FF0000607D90A3CE4B2092C06F10106F1
:1033A800F9D83601F6B20B7842EA433242EA05030D
:1033B80034431C43AAE70220F8BD4FF0FF32DA601D
:1033C800FDF722FF06463B68DA6812F04005A6D1F1
:1033D800FDF71AFF801BB0F57A7FF4D93A68FF2110
:1033E80004235162012087F8205087F82130F8BD66
:1033F80023F010030A33DBB24B70A9E7DA6822F036
:10340800A002DA60FDF700FF05463B68DA6812F0B3
:10341800200490D1FDF7F8FE401BB0F57A7FF4D96F
:103428003A68FF2104235162012087F8204087F879
:103438002130F8BD0025A6E7836A1A68D36B43F4E8
:103448008073D363704700BF2DE9F047064686B006
:10345800B9B190F83440E4B2012C04D002252846D2
:1034680006B0BDE8F0879046C26D1F46434400256C
:10347800934285630ED9836B43F0007325468363BB
:10348800EDE7836B012543F000638363284606B0AC
:10349800BDE8F0870368006CDFF8E8C0DFF8E8A053
:1034A800032286F83420DD62DA6B4FEA472942F4BA
:1034B800957EC3F83CE00A46856303F18001C0F8B5
:1034C8002CA0C0F834C04FEA9903FDF7A9FF0546C0
:1034D800C8B93068726CC36A43F00803012AC36232
:1034E8004FF4007118BF4FEA482801F0B3FAC8B189
:1034F8003368234A9A63B36B01221843B0631546B5
:1035080086F83420ABE733681D49DA6B22F49572EC
:10351800DA639963B36B43F08043B363254686F857
:1035280034409CE74FF0FF310222049001230091C0
:10353800902469463068CDF804900294039205936C
:1035480001F074FA012F14D982234146336330689D
:1035580001F0F2FA002882D03368094A9A63B36B03
:10356800012218430023B063154686F834203363DC
:1035780075E7812341463363306801F0A3FAE9E730
:10358800FF05400035370008F13600082DE9F04105
:10359800054688B000294BD090F83440E4B2012C9D
:1035A80004D00224204608B0BDE8F081C06D0E4664
:1035B800D11800278142AF6343D82868E96BD5F852
:1035C80044E0032485F83440C762C46B44F01A040D
:1035D800C463414CCC62BEF1010F404C8F6318BFED
:1035E80052024C634FF400718DE80C0001F032FA7E
:1035F8009DE80C00002832D1012B009326D9A02089
:1036080028631146286801F009FB009B8046B8F141
:10361800000F2FD02B68324A9A63AB6B012248EA1D
:1036280003030021AB63144685F834202963B9E706
:10363800836B012443F000638363204608B0BDE830
:10364800F081AB6B43F00073AB63ABE7902028636A
:103658001146286801F0AAFA009B8046D7E72B6834
:103668001F4A9A63AB6B01221843A863144685F876
:10367800342097E72A68E86BD16A5F0241F00803B3
:10368800D36231468032BB08FDF7CAFE044688B1D2
:103698002B681349DA6B22F49572DA639963AB6B82
:1036A800012243F08043AB63144685F83420C5F803
:1036B800308077E790220123286803974FF0FF3581
:1036C80002A9CDF81480CDF81880029504920793CA
:1036D80001F0ACF966E700BF41340008353700084F
:1036E800FF054000704700BF70B5846A236B822BCA
:1036F80010D02368DA6A40F23A5622F0080201250F
:103708000021DA6220469E6384F834502163FCF776
:1037180071FF70BD206801F0BBFA0028E9D0A36BE7
:103728001843A0632046FFF7DDFFE2E710B5846A7F
:10373800236CE26BDB6BD26B012B05D0012A03D023
:103748002046FFF7CFFF10BD2068154B8363C36B7E
:10375800216D23F49D73C363A36B43F08043A3637C
:10376800090401F0A9FC58B1A16B0843A063012228
:10377800002384F8342020462363FFF7B3FF10BDED
:103788000146206801F04EF9C0F3432005380128AE
:10379800EDD8206801F07CFAA36B1843A063E6E734
:1037A800FF05400038B5846A216D206840F23A531D
:1037B8008363090401F080FC054680B1A36B0122F4
:1037C8001D430023A56384F834202363A36B20469C
:1037D80013B1FFF787FF38BDFCF700FF38BD01467E
:1037E800206801F01FF9C0F34320012305389842EF
:1037F80084F834302563E9D8206801F049FAA36BCE
:103808001843A063E2E700BFF0B504460068256BE3
:10381800436BD90583B021D54FF480738363C36BA1
:1038280023F4414323F03A03C363C36A2A0723F00E
:103838000103C3625AD515F0220F40F08C80002393
:1038480040F23A510122816384F834202363AB07A4
:1038580020465AD0FCF7CEFE03B0F0BD436B5904A6
:1038680057D4436B1A047CD4436B13F03A0FF3D04C
:10387800436B9B0703D5A36B43F00203A363436B1E
:103888001F0703D5A36B43F00803A363436B9E068E
:1038980003D5A36B43F02003A363436BD90603D579
:1038A800A36B43F01003A36340F23A538363C36BE3
:1038B80023F49D73C36301F0EBF9A36B2A0740EA75
:1038C8000300A0637AD42B06C6D515F0300F7ED13D
:1038D80015F003055ED0206C464B8363FDF7E4FDCD
:1038E8000028B9D0206CFFF75DFFB5E72F06B3D5E8
:1038F800AE0658D4A807AFD12268D36A012123F0B5
:103908000803D362204684F83410FCF76DFE03B038
:10391800F0BD266A371D06F1240500E0206817F877
:10392800043C019317F8032C43EA0223019317F888
:10393800022C43EA0243019317F8012C01A943EA38
:1039480002630437019301F05FF8AF42E6D12036F5
:10395800266203B0F0BD01F09BF9002843D120682E
:103968006DE7A76A3D1D07F1240600E0206801F015
:1039780047F8010A020C030E05F8040C05F8031CAD
:1039880005F8022C05F8013C0435AE42EED120378B
:10399800A76261E70123A563204684F834302563D4
:1039A800FCF71CFE58E701F073F90028A2D0A36BBE
:1039B8001843A0632046FFF795FE9BE701220023EA
:1039C80084F8342020462363FFF78CFE44E7E06B3D
:1039D800094B8363FDF768FD00283FF43DAFE06BBA
:1039E800FFF7E0FE38E7A36B1843A0632046FFF714
:1039F80079FEB4E7AD370008053A000838B5846A9F
:103A0800216D206840F23A538363090401F054FBA6
:103A1800054680B1A36B01221D430023A56384F8EA
:103A280034202363A36B204613B1FFF75BFE38BD38
:103A3800FCF7D4FD38BD0146206800F0F3FFC0F361
:103A4800432001230538984284F834302563E9D8A7
:103A5800206801F01DF9A36B1843A063E2E700BFDB
:103A6800426E920F30B40A70426EC2F383624A709B
:103A780090F8672002F003028A7090F86620CA70F6
:103A880090F865200A7190F864204A71826E0346A6
:103A9800100DC2F30342C8800A729A6EC2F3C03294
:103AA8004A729A6EC2F380328A729A6EC2F34032B8
:103AB800CA729A6E0020C2F300320A7348735A6CB5
:103AC800002A40F088809A6ED86E940040F6FC7206
:103AD800224042EA9072C0F3C2600A61087593F806
:103AE8006F2002F007024A75DA6EC2F342528A75F5
:103AF800DA6EC2F38242CA75DA6EC2F3C2320A764D
:103B08000A69DD6E501C58650A7E02F0070201241E
:103B1800023204FA02F200FB02F25A65087A00F057
:103B28000F0004FA00F0440A02FB04F24FF4007498
:103B38009865DA651C66C5F380354D76DA6EC2F392
:103B4800C6128A76DA6E02F07F02CA761A6FD20F30
:103B58000A771A6FC2F341724A771A6FC2F3826208
:103B68008A771A6FC2F38352CA771A6F0020C2F39A
:103B7800405281F8202081F82100B3F8722002F029
:103B8800010281F822201A6FC2F3C03281F8232083
:103B98001A6FC2F3803281F824201A6FC2F34032C0
:103BA80081F825201A6FC2F3003281F826201A6F97
:103BB800C2F3812281F827201A6FC2F3012281F80B
:103BC80028201B6F0122C3F3460381F8293081F8AE
:103BD8002A2030BC7047012A0CD01A680E4991631C
:103BE8009A6B012142F080529A63084683F8341098
:103BF80030BC70479A6EDD6E120402F47C1242EA01
:103C080015420A610A69013292024FF400705A653E
:103C1800DA65986518668EE7FF054000F0B599B03B
:103C2800E0B190F83430044603F0FF02002B38D09E
:103C3800002376220A930B930C920AAA07CA03263A
:103C4800256884F834608DE8070007930893099382
:103C580007AB28460ECB00F0B9FE18B1012528465F
:103C680019B0F0BD2068436823F48073436000F006
:103C7800D1FE05460028F1D12268536843F48073C9
:103C880053600220FDF7C6FA2068069501F07CF81B
:103C9800054650B1012384F83430A06B2843A06353
:103CA800DCE70277FDF7C8F8C2E7206801F092F870
:103CB80060B3A5644FF6FF75069B5A1CAB424FF0E4
:103CC8000001069254D0206801F0BEF80146002891
:103CD80051D1206801F0F2F8014600284BD1206844
:103CE80000F0A0FE0028E7DA0023636401232068BF
:103CF800ADF8163000F092FE38BB4FF0806001231B
:103D080084F83430A36B0343A363A7E70123A364B8
:103D18004FF6FF75069B5A1CAB424FF00001069206
:103D280026D0206801F090F84FF0804130BB206821
:103D380001F0C4F8014608BB206800F073FEC30F09
:103D4800E8D04200D0D56364D0E7636C032B17D169
:103D58000421206800F066FE000DE0640DA92046ED
:103D6800FFF77EFE054600284FD04FF08050C6E78B
:103D78004FF080758EE74FF080558BE7054689E751
:103D8800206801F0D3F80028B9D10146206800F076
:103D980049FE04216067206800F044FE0821A067FE
:103DA800206800F03FFE0C21E067206800F03AFE32
:103DB800636CC4F88000032BCAD00DF1160120688B
:103DC80001F026F900289AD1636C032BC0D0BDF806
:103DD800161021652068090401F0DEF800288ED14C
:103DE8000146206800F01EFE04216066206800F08D
:103DF80019FE0821A066206800F014FE0C21E06678
:103E0800206800F00FFE2067A2E7226D20681204E8
:103E18002B4600F07FFF00287FF471AF2346261D54
:103E280053F8107B93E807008DE80700384696E8BA
:103E38000E0000F0CBFD01232846A563256384F816
:103E4800343019B0F0BD00BFF0B4436C876CC66C59
:103E5800056D446D826D0B60C36D006EC8614F6067
:103E68008E60CD600C6100204A618B61F0BC7047A8
:103E7800016D10B509040446006801F01DF920B170
:103E8800A16B0843A063002010BD0146206800F024
:103E9800C9FDC0F3432010BD002860D0F8B590F8E4
:103EA8003D30044603F0FF02002B3FD023682D4924
:103EB800022284F83D208B421A683CD0B3F1804F2F
:103EC8001AD0A1F594318B4216D001F59E318B4260
:103ED80016D001F580618B4212D0A169E56860684F
:103EE80022F0800211431960DD62986201225A6152
:103EF800002084F83D20F8BDA16822F070020A4332
:103F08002169A069184DE768666822F44072114378
:103F180021F080010143AB421960DF629E6202D04A
:103F2800124A9342E2D162691A63DFE780F83C20C3
:103F3800FCF7ECFFBAE7A0682169A56922F07002D6
:103F4800104320F44070014321F080012943196097
:103F5800E268DA6262689A6262691A63C6E70120F7
:103F6800704700BF002C0140004001400044014060
:103F780090F83C30012B3AD00222036870B480F8E4
:103F88003D209D680A68544C402A04EA05044FF015
:103F9800010580F83C509C6041D058D9702A00F047
:103FA800848026D8502A68D0602A17D11C6A4D68A8
:103FB800CE6824F010041C6299691A6A21F47041D1
:103FC80022F0A00242EA051241EA063199611A621A
:103FD8009A6822F0700242F067029A600023012278
:103FE80080F83D2080F83C3070BC184670470220AD
:103FF8007047B2F5805F39D0B2F5005FEED19C68AA
:104008008A684D68CE682A4324F47F410A4342EA0D
:1040180006229A609A6842F480429A60DEE71A6A39
:104028001C6A4E68CD6824F001041C62996922F06C
:104038000A0221F0F001324341EA051199611A623E
:104048009A6822F0700242F047029A60C6E7102A86
:1040580004D03ED9202A01D0302ABFD1996842F035
:10406800070221F070010A439A60B7E79A6822F4C0
:10407800803222F007029A60B0E71A6A1C6A4E681A
:10408800CD6824F001041C62996922F00A0221F02B
:10409800F001324341EA051199611A629A6822F0E7
:1040A800700242F057029A6098E79C688A684D68E7
:1040B800CE682A4324F47F410A4342EA06229A60E2
:1040C8009A6822F4803222F0770242F077029A60EE
:1040D80084E7002AC2D081E78800FEFF704700BF4E
:1040E800704700BF704700BF704700BF704700BFF0
:1040F80003681A69910710B5044602D5DA68920771
:1041080065D41A69520702D5DA6850074CD41A697F
:10411800110702D5DA68120734D41A69D00602D515
:10412800DA68D1061ED41A69D20702D5DA68D00730
:104138006BD41A69110602D5DA6812066DD41A69A9
:10414800D00502D5DA6811066FD41A69520602D56D
:10415800DA68500651D41A69910602D5DA689206CF
:1041680043D410BD6FF010021A61DB69082213F402
:10417800407F227720466CD0FFF7B4FF00222368E7
:104188002277D0E76FF008021A61DB6904229B07E7
:10419800227720465AD1FFF7A3FF2046FFF7A4FF56
:1041A800002223682277B8E76FF004021A619B693E
:1041B800022213F4407F2277204644D1FFF790FF74
:1041C8002046FFF791FF0022236822779FE76FF0D0
:1041D80002021A619B690122990702772DD0FFF725
:1041E80081FF0022236822778BE76FF020022046A8
:1041F8001A61BDE8104000F05FB86FF040021A6124
:104208002046FFF773FF2368A5E76FF001021A61E4
:104218002046FFF763FF23688BE76FF080021A617F
:10422800204600F04BF8236889E76FF480721A6122
:10423800204600F045F8236887E7FFF751FF20463E
:10424800FFF752FFCDE7FFF74DFFBCE7FFF74AFF47
:10425800A6E7FFF745FF2046FFF746FF8EE700BFBA
:1042680090F83C20012A1DD0034670B41A68114CFE
:10427800022083F83D00A2425068966814D00D6869
:104288008C6820F0700026F0800128432143012526
:10429800002450602046916083F83D5083F83C40EC
:1042A80070BC7047022070474C6820F470002043AF
:1042B800E5E700BF002C0140704700BF704700BF12
:1042C800704700BF704700BF704700BF0368DA69D6
:1042D800196870B5160704469D684ED015F00100A0
:1042E80055D0D60707D5CD0505D501251D62656FC3
:1042F80045F001056567960772D538B102251D623C
:10430800656F45F00405656755076DD4150703D536
:104318008E0670D400286ED1606F00282CD09506C8
:1043280006D5880604D5226E12B120469047236828
:10433800626F110703D49A6812F040056BD01A68AF
:1043480022F490721A609A68202122F001029A6081
:1043580084F872109A6800215206216652D59A682C
:10436800E06E22F040029A6000284BD02C4B836309
:10437800FDF79AF8002849D170BD96060AD58E0631
:1043880008D5036E002BF7D0BDE87040184711F42C
:10439800907FA6D1D60208D4160610D50D060ED5E4
:1043A800636E002BE8D02046EEE76802F4D54FF4A0
:1043B800801220461A62BDE8704000F0A1BA50068B
:1043C800DAD54A06D8D51A68202522F040020021FD
:1043D8001A60204684F871506166FFF773FFCBE7D7
:1043E800560793D5002891D004251D62656F45F0C6
:1043F800020565678AE708201862606F40F00800C8
:10440800606789E72046FFF75FFF70BDE06EBDE893
:104418007040836B18472046FFF756FF656770BDED
:104428002D44000808B5836A0022A3F85A201846CC
:10443800A3F85220FFF748FF08BD00BF436ADA0718
:1044480010B406D50468826A616821F400310A4311
:1044580062609C0706D50468C26A616821F48031ED
:104468000A436260590706D50468026B616821F443
:1044780080210A4362601A0706D50468426B6168A6
:1044880021F400410A436260DC0606D50468826BA9
:10449800A16821F480510A43A260990606D50468F0
:1044A800C26BA16821F400510A43A2605A0609D5DB
:1044B8000168046C4A6822F480122243B4F5801F14
:1044C8004A600BD01B0606D50168826C4B6823F442
:1044D800002313434B605DF8044B70474C68426CF3
:1044E80024F4C00422434A60ECE700BF002800F02F
:1044F800E180F8B590F87130044603F0FF02002B14
:1045080037D02368A76821696069E569242284F89F
:1045180071201E68C14A26F001061E601E683943D4
:104528000143324029430A431A605868E168BC4A8B
:10453800A66920F440500143934259605FD09968BE
:10454800226AB84821F4306132430A4383429A60B0
:1045580000F08E80B44A934200F0AE80B34A934292
:104568000CD0B34A934230D00023236663660120FF
:10457800F8BD80F87020FCF723FDC2E7AD4BD3F8F7
:10458800883003F03003102B00F02E8127D9202B20
:1045980000F03681302BE7D1B5F5004F40F01C8193
:1045A8006268530803F58033B3FBF2F39BB2A3F1BF
:1045B80010014FF6EF729142D6D823F00F0122680E
:1045C800C3F342030B43D360A9E09A4BD3F8883076
:1045D80003F0C003402B00F0078100F23381002B69
:1045E800C2D1B5F5004F40F0EE80FEF7E1FA6268FF
:1045F800530803EB4000B0FBF2F39BB2D7E79A688D
:104608008C4922F4306232439A60D1F8885005F41C
:104618004065B5F5806F00F0668140F25B81B5F5C5
:10462800006F00F01881B5F5406F9DD108254FF453
:104638000040626802EB4203834295D8B0EB023F28
:1046480092D8082D90D801A353F825F0D748000830
:1046580071450008C148000871450008A3480008D2
:104668007145000871450008714500087F48000839
:10467800704B714AD3F8883003F00303D35CB5F567
:10468800004F22D1082B3FF66FAF01A252F823F05A
:10469800F3450008594800086548000871450008B6
:1046A80079480008714500087145000871450008FF
:1046B800A9450008012070475E4B5F4AD3F888304F
:1046C80003F00C0313441B79D9E7082B3FF64CAFD2
:1046D80001A252F823F000BFCF47000805470008A1
:1046E8000F48000871450008F747000871450008A1
:1046F8007145000871450008E1470008FEF768FAAF
:10470800636800EB5300B0FBF3F39BB2A3F1100115
:104718004FF6EF7291423FF627AF2268D360626A84
:10472800002323666366002A40F0888023685A685D
:1047380022F490425A609A6822F02A029A601A6813
:10474800002142F001021A606167FCF75DFD2368F1
:104758001A68110705460BD41A68520726D4202375
:10476800002084F8713084F8700084F87230F8BD45
:10477800DA6902F40012002AEED1FCF745FD401B6D
:10478800B0F1007F2368F3D31A6822F4D0721A605C
:104798009A68202122F0010200259A60032084F8FB
:1047A800711084F8705084F87210F8BDDB6903F456
:1047B8008003002BD3D1FCF727FD401BB0F1007F0D
:1047C8002368F3D3E0E7FEF7F3F9636800EB5300DF
:1047D800B0FBF3F39BB299E76268530803F5004313
:1047E800B3FBF2F39BB291E7B5F5004F40D0FDF76C
:1047F80097FD636800EB5300B0FBF3F39BB285E7CA
:10480800B5F5004F2AD061684A0802F5740303F52C
:104818001053B3FBF1F39BB278E700BFF369FFEFE6
:10482800008000400038014000440040004800403B
:10483800004C0040001002404C8A00082046FFF758
:10484800FDFD73E7802BDBD0C02B3FF4A5AE8BE6D4
:10485800FEF7BEF9CBE602252648EAE661684A0873
:1048680002F1F47303F59043B3FBF1F39BB29EE6B8
:10487800FDF756FDBBE65008002110F5000041F198
:1048880000010023FBF7B2FC1B4BA0F540729A42D3
:104898003FF66AAE2368D86041E7FDF741FD6268DC
:1048A8004FF4807356080027E3FB0067304639460B
:1048B8000023FBF79BFCE7E710485308C0184FF0AC
:1048C800000141F100010023FBF790FCDCE7FEF753
:1048D8006FF9E4E7002D7FF447AEFEF769F9002889
:1048E8007FF4A7AE1BE7FDF71BFD042500287FF426
:1048F800A0AE14E70024F400FFFC0F00000024F42D
:10490800704700BFC523836343692F48184048B1E7
:10491800002B08DB590009D5402070479A044AD576
:104928004FF4800070474FF0007070479A0001D52F
:1049380080207047D90002D54FF4807070471A0163
:1049480002D54FF400707047590102D54FF48060CA
:104958007047DA0102D54FF400607047190202D59A
:104968004FF4805070475A0202D54FF400507047F8
:10497800990202D54FF480407047DA0202D54FF40D
:1049880000407047590302D54FF4003070479A032E
:1049980002D54FF480207047D90302D54FF4002088
:1049A80070471A0402D54FF4801070475904B5D5E2
:1049B8004FF40010704713F0080F14BF4FF40000B5
:1049C8004FF48030704700BF08E0FFFD84B070B43A
:1049D80004AC84E80E0006AA1CCA059D0E463543A1
:1049E80015432B43099942681C43214370BC22F4A8
:1049F800FD4323F07F030B43436004B0002070475E
:104A0800D0F88000704700BF0B68C0F880300020E5
:104A1800704700BF0323036000207047006800F060
:104A28000300704714304058704700BF30B44A68DC
:104A38008D680C68CB6844620C698262C26A4969F5
:104A48002B43234322F0F7020B431343C36230BCCA
:104A5800002070478160194BC26819491B6822F40D
:104A68007F62A1FB031322F00F02590A42F48A6203
:104A780041F28833C26003FB01F303E0426B12F09A
:104A8800450F05D113F1FF33F8D24FF000407047BE
:104A9800436B5A0703D50423836318467047436B57
:104AA800DB0705D40369DBB2102B05D00120704762
:104AB8000123836318467047FFF724BF04000020D2
:104AC800D34D62108160C268194B1A491B6822F4E1
:104AD8007F6222F00F02A1FB031342F48A62590A93
:104AE80042F0010241F28833C26003FB01F303E0A4
:104AF800426B12F0450F05D113F1FF33F8D24FF096
:104B080000407047436B5A0703D504238363184654
:104B18007047436BDB0705D40369DBB2112B05D063
:104B2800012070470123836318467047FFF7EABEE8
:104B380004000020D34D62108160C268194B1A49E5
:104B48001B6822F47F6222F00F02A1FB031342F4D8
:104B58008A62590A42F0020241F28833C26003FBBA
:104B680001F303E0426B12F0450F05D113F1FF3357
:104B7800F8D24FF000407047436B5A0703D504231F
:104B8800836318467047436BDB0705D40369DBB2C0
:104B9800122B05D001207047012383631846704704
:104BA800FFF7B0BE04000020D34D62108160194B9E
:104BB800C26819491B6822F47F62A1FB031322F023
:104BC8000F02590A42F48B6241F28833C26003FB38
:104BD80001F303E0426B12F0450F05D113F1FF33E7
:104BE800F8D24FF000407047436B5A0703D50423AF
:104BF800836318467047436BDB0705D40369DBB250
:104C0800182B05D00120704701238363184670478D
:104C1800FFF778BE04000020D34D62108160C2689F
:104C2800194B1A491B6822F47F6222F00F02A1FB7C
:104C3800031342F48B62590A42F0010241F28833AD
:104C4800C26003FB01F303E0426B12F0450F05D18C
:104C580013F1FF33F8D24FF000407047436B5A0707
:104C680003D50423836318467047436BDB0705D4D9
:104C78000369DBB2192B05D0012070470123836338
:104C880018467047FFF73EBE04000020D34D62105F
:104C9800002310B48360C1681B4B1C4C1B681C4A62
:104CA80021F47F6121F00F0141F48961A4FB0343E2
:104CB80041F004015B0AC16002FB03F373B1426B6C
:104CC80012F0450F03F1FF33F8D0436B5A070AD5AA
:104CD800042383635DF8044B184670474FF0004087
:104CE8005DF8044B7047436BDB0705D40369DBB2FF
:104CF8000C2B05D00120F3E7012383631846EFE767
:104D08005DF8044BFFF7FEBD04000020D34D621090
:104D180000E1F5058260C268194B1A491B6822F444
:104D28007F6222F00F02A1FB031342F48862590A42
:104D380042F0070241F28833C26003FB01F303E04B
:104D4800426B12F0450F05D113F1FF33F8D24FF043
:104D580000407047436B5A0703D504238363184602
:104D68007047436BDB0705D40369DBB2072B05D01B
:104D7800012070470123836318467047FFF7C2BDBF
:104D880004000020D34D6210002383600F4BC268DB
:104D98000F491B6822F47F62A1FB031322F00F0264
:104DA800590A42F4806241F28833C26003FB01F37E
:104DB80002E0426B120605D413F1FF33F9D24FF02B
:104DC80000407047C523836300207047040000201B
:104DD800D34D62104FF4D5738360194BC2681B68BA
:104DE8000146184822F47F62A0FB030322F00F0259
:104DF800580A42F4896241F28833CA6003FB00F31F
:104E080003E04A6B12F0450F05D113F1FF33F8D2D6
:104E18004FF0004070474B6B5B0702D50420886356
:104E280070474B6B13F0010307D1486B10F040003B
:104E3800F0D0402218468A63704701208863704783
:104E480004000020D34D62108160C268194B1A49D2
:104E58001B6822F47F6222F00F02A1FB031342F4C5
:104E68008E62590A42F0070241F28833C26003FB9E
:104E780001F303E0426B12F0450F05D113F1FF3344
:104E8800F8D24FF000407047436B5A0703D504230C
:104E9800836318467047436BDB0705D40369DBB2AD
:104EA800372B05D0012070470123836318467047CC
:104EB800FFF728BD04000020D34D621041F00041E7
:104EC80041F4801110B48160C268164B16491B6802
:104ED80022F47F6222F00F02A1FB031342F48D62D9
:104EE800590A42F0010241F288330446C26003FBCA
:104EF80001F303E0626B12F0450F07D113F1FF33A2
:104F0800F8D24FF000405DF8044B7047606B10F02A
:104F1800040015BF0420C523A063A3635DF8044BF8
:104F2800704700BF04000020D34D62100023836047
:104F3800C268174B01461B68164822F47F6222F0AC
:104F48000F02A0FB030342F49862580A42F00202DF
:104F580041F28833CA6003FB00F303E04A6B12F0A6
:104F6800450F05D113F1FF33F8D24FF000407047D9
:104F78004B6B5B0702D5042088637047486B10F0C1
:104F8800010015BF0120C52388638B63704700BFEC
:104F980004000020D34D621010B48160C2681A4B1F
:104FA8001A491B6822F47F6222F00F02A1FB031347
:104FB80042F49962590A42F0010241F288330446E8
:104FC800C26003FB01F303E0626B12F0450F07D1E7
:104FD80013F1FF33F8D24FF000405DF8044B7047EF
:104FE800636B5B0704D50420A0635DF8044B70472E
:104FF800606B10F0010015BF0120C523A063A363F7
:105008005DF8044B704700BF04000020D34D6210C8
:10501800002310B48360C268254B264C1B6822F419
:105028007F6222F00F02A4FB034342F488625C0A09
:1050380042F0030241F28833C26003FB04F303E049
:10504800426B12F0450F07D113F1FF33F8D24FF03E
:1050580000405DF8044B7047436B5B0705D504239C
:1050680083635DF8044B18467047436BDC0705D42F
:105078000369DBB2032B05D00120EAE70123836330
:105088001846E6E7C5238363436913F4604004D0F8
:105098005A0405D54FF40050DBE71B0C0B80D8E70A
:1050A80013F4004F14BF4FF480504FF48030D0E712
:1050B80004000020D34D62108160C268194B1A4960
:1050C8001B6822F47F6222F00F02A1FB031342F453
:1050D8008962590A42F0050241F28833C26003FB33
:1050E80001F303E0426B12F0450F05D113F1FF33D2
:1050F800F8D24FF000407047436B5A0703D504239A
:10510800836318467047436BDB0705D40369DBB23A
:105118000D2B05D001207047012383631846704783
:10512800FFF7F0BB04000020D34D62107F2811D98F
:1051380089B910B40D4B01E0802915D033F8022F3E
:1051480082428CB201F10101F6D104F1800080B2F3
:105158005DF8044B7047FF2804D8054B803833F8B6
:1051680010007047002070470020F1E75E8A0008B1
:10517800608A000870B4244B03F5FA72B0F5805FBA
:1051880028BF134604330BE088420ED333F8022CB1
:10519800D4B26518A8424FEA122208DB04337AB168
:1051A80033F8041C1E460029EED170BC7047082A4B
:1051B800FBD8DFE802F00C1016191C1F2225080086
:1051C80006EB4403DEE7A0F5E35080B2EDE7411AB1
:1051D80033F81100E9E7411A01F00103C01A80B25F
:1051E800E3E7103880B2E0E7203880B2DDE73038F6
:1051F80080B2DAE71A3880B2D7E7083080B2D4E74D
:10520800503880B2D1E700BF608B0008034B03EB36
:10521800800218445368007A5B681847DC00002055
:10522800064B1A5C0AB10020704703EB800201218B
:105238001954526818441368007A1847DC00002093
:1052480030B4054C04EB800520446C68007AA468EF
:10525800A44630BC604700BFDC00002030B4054CD9
:1052680004EB800520446C68007AE468A44630BCEE
:10527800604700BFDC000020054B10B403EB80043E
:1052880018446368007A1B695DF8044B184700BF2F
:10529800DC000020F8B5056B00F1340704462A4607
:1052A800407839460123FFF7D9FFA8B9636AE26954
:1052B800E070EB1A934201D30020F8BDA678012EC6
:1052C8004FF001033946F7D9E269607815442A4658
:1052D800FFF7C4FF013EF2E70120F8BD70B54FF0BB
:1052E800FF360023B1420446C37006630CD00D4656
:1052F8000A46012300F134014078FFF7A1FF10B1FD
:105308002663042070BD256394F8331294F8323272
:105318004AF6552243EA0123934201D0032070BD87
:1053280094F83430E92B07D0636B144A03F0FF1369
:10533800934201D0022070BDB4F86C0094F86B3031
:1053480094F86A200E4943EA002342EA032323F033
:105358007F438B420FD0B4F8881094F8872094F8D4
:105368008630084842EA012243EA0223834214BFF6
:105378000220002070BD002070BD00BFEB0090002F
:1053880046415400464154332DE9F041056B8D42A6
:1053980023D0C37804460E4600F134071BB301231B
:1053A8002A4639464078FFF759FFC8B9636AE26967
:1053B800E070EB1A934216D294F80280B8F1010F0C
:1053C8004FF0010339460ED9E269607815442A4640
:1053D800FFF744FF08F1FF38F0E70020BDE8F0814F
:1053E8000120BDE8F0813246394601236078FFF795
:1053F80027FF002818BF4FF0FF36266314BF01208F
:105408000020BDE8F08100BF2DE9F84300230B60C0
:105418000568002D00F028812E781F2E0AD93A2E13
:1054280000F022812C4601E03A2B23D014F8013FEA
:105438001F2BF9D8B24E34684CB30C60237802F0B5
:10544800FE056BB16078FFF7E1FEC20708D4002DB6
:1054580000F00781430740F104810A20BDE8F88382
:10546800002020706070FFF7DBFEC70712D503200D
:10547800BDE8F8830135AC4240F0F680302E40F0AC
:10548800F3809F4E013404603468002CD5D10C2081
:10549800BDE8F8830DB14107DFD400212046FFF7AE
:1054A8001DFF022840F0E38094F8F631002B00F04D
:1054B8000781B4F8FC9194F8FB3194F8FA2143EA97
:1054C800092342EA032994F80632002B00F0F680FB
:1054D800B4F80C8294F80B3294F80A2243EA0823B1
:1054E80042EA032894F816724FB1B4F81C7294F883
:1054F8001B3294F81A2243EA072342EA032794F856
:1055080026524DB1B4F82C5294F82B3294F82A2232
:1055180043EA052342EA0325B9F1000F40F0C580AC
:10552800B8F1000F40F0B880002F00F0A78039468E
:105538002046FFF7D3FE012800F2A0803D4694F8EC
:10554800402094F83F3043EA0223B3F5007F40F04F
:10555800928094F84B1094F84A3053EA012109D10B
:10556800B4F85A1094F8593094F8582043EA0123B3
:1055780042EA032194F84400E161431E012BA07024
:1055880079D894F841309AB201FB00F06281002A80
:1055980071D05A1E1A426ED194F8452094F846707C
:1055A80042EA07273A07278165D194F848E094F83A
:1055B800472052EA0E2209D1B4F856C094F855E0B3
:1055C80094F854204EEA0C2E42EA0E2294F843C076
:1055D80094F842E05EEA0C2C4DD00CEB171E864482
:1055E800724548D3CEEB0202B2FBF3F3002B42D054
:1055F8004FF6F572934200F2858040F6F5729342B9
:1056080062D802330CEB0502AE44A3616262C4F8AF
:105618002CE025627FB303F0010505F2FF1503EBCB
:10562800430305EB53030244B1EB532FA26222D389
:105638004FF0FF3380222271636123610122B38816
:10564800B168227001339BB28C42B380E3802C4B4B
:1056580004BF00229A60B269294B944201D100220A
:105668009A610020BDE8F8830B20BDE8F883042880
:105678000FD0012826D90D20BDE8F883002DFAD0D7
:1056880029462046FFF72AFE01287FF658AF04284E
:10569800F1D10120BDE8F88341462046FFF71EFE00
:1056A80001283FF641AF454649E749462046FFF7FE
:1056B80015FE01283FF634AF4D4640E7984611E7FE
:1056C800994600E700253AE702330CEB0502AE44A1
:1056D800A3616262C4F82CE02562002FCBD05B0086
:1056E80003F2FF130244B1EB532FA262C3D34FF06E
:1056F800FF33802222716361236102229FE700BF8A
:10570800B400002094F85F8094F85E0025620CEBEA
:1057180005020233AE44626250EA0822A361C4F86B
:105728002CE0A8D1002FA6D1B4F862E094F861006B
:1057380094F860209B0040EA0E2003F2FF1342EA2F
:105748000022B1EB532FA26295D394F8651094F818
:10575800643043EA01234FF0FF328021012B62615C
:105768002261217101D0032269E7691C2046FFF7F5
:105778000BFE0028F7D194F8332294F832322771BF
:1057880043EA02234AF655229342ECD1E08E94F87C
:10579800352094F83430174942EA002243EA0223BC
:1057A8008B42E0D1B4F81A0294F8192294F818320E
:1057B80001F1FF5101F5005142EA0022203143EA8C
:1057C80002238B42CFD1B4F81E7294F81D02B4F8AC
:1057D800225294F8211294F81C2294F8203240EABC
:1057E800072041EA052142EA002243EA01236261D7
:1057F8002361B8E752526141F8B5C37804465BB9F2
:105808002378032B2AD0002260781146FFF734FD55
:10581800003018BF0120F8BD056B407804F134074B
:105828002A4639460123FFF719FDA8B9626AE369D8
:10583800E070AA1A9A42E3D2A678012E01D8DFE7CF
:10584800E36960781D44013E2A4601233946FFF783
:1058580005FD012EF4D1D3E70120F8BD2579012DEE
:10586800D1D104F1340738464FF40072002102F018
:10587800DBFF63692669226A84F81C32180E4FEA36
:10588800132C4FEA134E39462B46370C84F81F0267
:105898005525AA20013284F81DC284F81EE24FEA79
:1058A800162C4FEA166E84F8206284F8227261265C
:1058B800522784F8325284F833024125722084F842
:1058C800180284F8190284F821C284F823E22263BA
:1058D80084F8347084F8357084F8366084F81B6274
:1058E80084F8375084F81A526078FFF7B7FC002321
:1058F800237188E72DE9F84F0378022B04460E46FA
:10590800174600F0A580032B70D0012B02D002208F
:10591800BDE8F88F426AD0F8309001EB510A02EBEB
:105928005A28C84500F04581C27800F13405002A9C
:1059380040F0B2802946012342466078FFF780FC98
:10594800002840F01281C4F8308016F0010B0AF1EB
:105958000109CAF3080A00F00E8115F80A3003F0AD
:105968000F0343EA071305F80A30636A266B03EB53
:105978005928B0454FF00103E37000F0208101235E
:10598800324629466078FFF769FC002840F0F0802D
:10599800626AE369E070B21A9A4212D294F802A0DD
:1059A800BAF1010F01D80CE0E36960781E440AF1EE
:1059B800FF3A324601232946FFF750FCBAF1010F9E
:1059C800F2D10123424629466078FFF739FC0028C6
:1059D80040F0CB80C9F308094D44C4F83080BBF1CE
:1059E800000F00F0D780C7F30717D9E0436AD0F853
:1059F80030A003EBD118D04500F0DE80C37800F169
:105A08003405002B40F08E802946012342466078F9
:105A1800FFF716FC002840F0A880C4F83080B600D4
:105A280006F4FE76AA1927F0704753881B0403F082
:105A380070431F43AF55380C4FEA172E390E012318
:105A4800907082F801E0D170E3700020BDE8F88F13
:105A5800436AD0F830A003EB1128D04500F0A680A7
:105A6800C37800F13405002B39D129460123424679
:105A78006078FFF7E5FB002877D1C4F8308076001E
:105A880006F4FF76AA19AF55C7F307210123517011
:105A9800E3700020BDE8F88F29464A464078FFF7B2
:105AA800DDFB002864D1626AE369E070C2EB090299
:105AB8009A42BFF43FAF94F802B0BBF1010F01D88E
:105AC80038E7E369607899440BF1FF3B4A460123C4
